{
  "contractName": "HereForYourSoul",
  "abi": [
    {
      "inputs": [],
      "stateMutability": "nonpayable",
      "type": "constructor"
    },
    {
      "inputs": [],
      "name": "ApprovalCallerNotOwnerNorApproved",
      "type": "error"
    },
    {
      "inputs": [],
      "name": "ApprovalQueryForNonexistentToken",
      "type": "error"
    },
    {
      "inputs": [],
      "name": "ApproveToCaller",
      "type": "error"
    },
    {
      "inputs": [],
      "name": "BalanceQueryForZeroAddress",
      "type": "error"
    },
    {
      "inputs": [],
      "name": "MintERC2309QuantityExceedsLimit",
      "type": "error"
    },
    {
      "inputs": [],
      "name": "MintToZeroAddress",
      "type": "error"
    },
    {
      "inputs": [],
      "name": "MintZeroQuantity",
      "type": "error"
    },
    {
      "inputs": [],
      "name": "OwnerQueryForNonexistentToken",
      "type": "error"
    },
    {
      "inputs": [],
      "name": "OwnershipNotInitializedForExtraData",
      "type": "error"
    },
    {
      "inputs": [],
      "name": "TransferCallerNotOwnerNorApproved",
      "type": "error"
    },
    {
      "inputs": [],
      "name": "TransferFromIncorrectOwner",
      "type": "error"
    },
    {
      "inputs": [],
      "name": "TransferToNonERC721ReceiverImplementer",
      "type": "error"
    },
    {
      "inputs": [],
      "name": "TransferToZeroAddress",
      "type": "error"
    },
    {
      "inputs": [],
      "name": "URIQueryForNonexistentToken",
      "type": "error"
    },
    {
      "anonymous": false,
      "inputs": [
        {
          "indexed": true,
          "internalType": "address",
          "name": "owner",
          "type": "address"
        },
        {
          "indexed": true,
          "internalType": "address",
          "name": "approved",
          "type": "address"
        },
        {
          "indexed": true,
          "internalType": "uint256",
          "name": "tokenId",
          "type": "uint256"
        }
      ],
      "name": "Approval",
      "type": "event"
    },
    {
      "anonymous": false,
      "inputs": [
        {
          "indexed": true,
          "internalType": "address",
          "name": "owner",
          "type": "address"
        },
        {
          "indexed": true,
          "internalType": "address",
          "name": "operator",
          "type": "address"
        },
        {
          "indexed": false,
          "internalType": "bool",
          "name": "approved",
          "type": "bool"
        }
      ],
      "name": "ApprovalForAll",
      "type": "event"
    },
    {
      "anonymous": false,
      "inputs": [
        {
          "indexed": true,
          "internalType": "uint256",
          "name": "fromTokenId",
          "type": "uint256"
        },
        {
          "indexed": false,
          "internalType": "uint256",
          "name": "toTokenId",
          "type": "uint256"
        },
        {
          "indexed": true,
          "internalType": "address",
          "name": "from",
          "type": "address"
        },
        {
          "indexed": true,
          "internalType": "address",
          "name": "to",
          "type": "address"
        }
      ],
      "name": "ConsecutiveTransfer",
      "type": "event"
    },
    {
      "anonymous": false,
      "inputs": [
        {
          "indexed": true,
          "internalType": "address",
          "name": "previousOwner",
          "type": "address"
        },
        {
          "indexed": true,
          "internalType": "address",
          "name": "newOwner",
          "type": "address"
        }
      ],
      "name": "OwnershipTransferred",
      "type": "event"
    },
    {
      "anonymous": false,
      "inputs": [
        {
          "indexed": true,
          "internalType": "address",
          "name": "from",
          "type": "address"
        },
        {
          "indexed": true,
          "internalType": "address",
          "name": "to",
          "type": "address"
        },
        {
          "indexed": true,
          "internalType": "uint256",
          "name": "tokenId",
          "type": "uint256"
        }
      ],
      "name": "Transfer",
      "type": "event"
    },
    {
      "inputs": [],
      "name": "altarSupply",
      "outputs": [
        {
          "internalType": "uint256",
          "name": "",
          "type": "uint256"
        }
      ],
      "stateMutability": "view",
      "type": "function",
      "constant": true
    },
    {
      "inputs": [
        {
          "internalType": "address",
          "name": "to",
          "type": "address"
        },
        {
          "internalType": "uint256",
          "name": "tokenId",
          "type": "uint256"
        }
      ],
      "name": "approve",
      "outputs": [],
      "stateMutability": "nonpayable",
      "type": "function"
    },
    {
      "inputs": [
        {
          "internalType": "address",
          "name": "owner",
          "type": "address"
        }
      ],
      "name": "balanceOf",
      "outputs": [
        {
          "internalType": "uint256",
          "name": "",
          "type": "uint256"
        }
      ],
      "stateMutability": "view",
      "type": "function",
      "constant": true
    },
    {
      "inputs": [],
      "name": "baseURI",
      "outputs": [
        {
          "internalType": "string",
          "name": "",
          "type": "string"
        }
      ],
      "stateMutability": "view",
      "type": "function",
      "constant": true
    },
    {
      "inputs": [],
      "name": "commonsMintIsActive",
      "outputs": [
        {
          "internalType": "bool",
          "name": "",
          "type": "bool"
        }
      ],
      "stateMutability": "view",
      "type": "function",
      "constant": true
    },
    {
      "inputs": [
        {
          "internalType": "uint256",
          "name": "tokenId",
          "type": "uint256"
        }
      ],
      "name": "getApproved",
      "outputs": [
        {
          "internalType": "address",
          "name": "",
          "type": "address"
        }
      ],
      "stateMutability": "view",
      "type": "function",
      "constant": true
    },
    {
      "inputs": [
        {
          "internalType": "address",
          "name": "owner",
          "type": "address"
        },
        {
          "internalType": "address",
          "name": "operator",
          "type": "address"
        }
      ],
      "name": "isApprovedForAll",
      "outputs": [
        {
          "internalType": "bool",
          "name": "",
          "type": "bool"
        }
      ],
      "stateMutability": "view",
      "type": "function",
      "constant": true
    },
    {
      "inputs": [],
      "name": "maxTx",
      "outputs": [
        {
          "internalType": "uint256",
          "name": "",
          "type": "uint256"
        }
      ],
      "stateMutability": "view",
      "type": "function",
      "constant": true
    },
    {
      "inputs": [],
      "name": "merkleRoot",
      "outputs": [
        {
          "internalType": "bytes32",
          "name": "",
          "type": "bytes32"
        }
      ],
      "stateMutability": "view",
      "type": "function",
      "constant": true
    },
    {
      "inputs": [],
      "name": "mintToCOVEN",
      "outputs": [
        {
          "internalType": "uint256",
          "name": "",
          "type": "uint256"
        }
      ],
      "stateMutability": "view",
      "type": "function",
      "constant": true
    },
    {
      "inputs": [],
      "name": "name",
      "outputs": [
        {
          "internalType": "string",
          "name": "",
          "type": "string"
        }
      ],
      "stateMutability": "view",
      "type": "function",
      "constant": true
    },
    {
      "inputs": [],
      "name": "owner",
      "outputs": [
        {
          "internalType": "address",
          "name": "",
          "type": "address"
        }
      ],
      "stateMutability": "view",
      "type": "function",
      "constant": true
    },
    {
      "inputs": [
        {
          "internalType": "uint256",
          "name": "tokenId",
          "type": "uint256"
        }
      ],
      "name": "ownerOf",
      "outputs": [
        {
          "internalType": "address",
          "name": "",
          "type": "address"
        }
      ],
      "stateMutability": "view",
      "type": "function",
      "constant": true
    },
    {
      "inputs": [],
      "name": "renounceOwnership",
      "outputs": [],
      "stateMutability": "nonpayable",
      "type": "function"
    },
    {
      "inputs": [],
      "name": "revealed",
      "outputs": [
        {
          "internalType": "bool",
          "name": "",
          "type": "bool"
        }
      ],
      "stateMutability": "view",
      "type": "function",
      "constant": true
    },
    {
      "inputs": [
        {
          "internalType": "address",
          "name": "from",
          "type": "address"
        },
        {
          "internalType": "address",
          "name": "to",
          "type": "address"
        },
        {
          "internalType": "uint256",
          "name": "tokenId",
          "type": "uint256"
        }
      ],
      "name": "safeTransferFrom",
      "outputs": [],
      "stateMutability": "nonpayable",
      "type": "function"
    },
    {
      "inputs": [
        {
          "internalType": "address",
          "name": "from",
          "type": "address"
        },
        {
          "internalType": "address",
          "name": "to",
          "type": "address"
        },
        {
          "internalType": "uint256",
          "name": "tokenId",
          "type": "uint256"
        },
        {
          "internalType": "bytes",
          "name": "_data",
          "type": "bytes"
        }
      ],
      "name": "safeTransferFrom",
      "outputs": [],
      "stateMutability": "nonpayable",
      "type": "function"
    },
    {
      "inputs": [
        {
          "internalType": "address",
          "name": "",
          "type": "address"
        }
      ],
      "name": "sentTxAsSorcerer",
      "outputs": [
        {
          "internalType": "bool",
          "name": "",
          "type": "bool"
        }
      ],
      "stateMutability": "view",
      "type": "function",
      "constant": true
    },
    {
      "inputs": [
        {
          "internalType": "address",
          "name": "operator",
          "type": "address"
        },
        {
          "internalType": "bool",
          "name": "approved",
          "type": "bool"
        }
      ],
      "name": "setApprovalForAll",
      "outputs": [],
      "stateMutability": "nonpayable",
      "type": "function"
    },
    {
      "inputs": [],
      "name": "sorcererMint",
      "outputs": [
        {
          "internalType": "uint256",
          "name": "",
          "type": "uint256"
        }
      ],
      "stateMutability": "view",
      "type": "function",
      "constant": true
    },
    {
      "inputs": [],
      "name": "sorcererMintIsActive",
      "outputs": [
        {
          "internalType": "bool",
          "name": "",
          "type": "bool"
        }
      ],
      "stateMutability": "view",
      "type": "function",
      "constant": true
    },
    {
      "inputs": [
        {
          "internalType": "bytes4",
          "name": "interfaceId",
          "type": "bytes4"
        }
      ],
      "name": "supportsInterface",
      "outputs": [
        {
          "internalType": "bool",
          "name": "",
          "type": "bool"
        }
      ],
      "stateMutability": "view",
      "type": "function",
      "constant": true
    },
    {
      "inputs": [],
      "name": "symbol",
      "outputs": [
        {
          "internalType": "string",
          "name": "",
          "type": "string"
        }
      ],
      "stateMutability": "view",
      "type": "function",
      "constant": true
    },
    {
      "inputs": [],
      "name": "teamHasClaimed",
      "outputs": [
        {
          "internalType": "bool",
          "name": "",
          "type": "bool"
        }
      ],
      "stateMutability": "view",
      "type": "function",
      "constant": true
    },
    {
      "inputs": [],
      "name": "totalSupply",
      "outputs": [
        {
          "internalType": "uint256",
          "name": "",
          "type": "uint256"
        }
      ],
      "stateMutability": "view",
      "type": "function",
      "constant": true
    },
    {
      "inputs": [
        {
          "internalType": "address",
          "name": "from",
          "type": "address"
        },
        {
          "internalType": "address",
          "name": "to",
          "type": "address"
        },
        {
          "internalType": "uint256",
          "name": "tokenId",
          "type": "uint256"
        }
      ],
      "name": "transferFrom",
      "outputs": [],
      "stateMutability": "nonpayable",
      "type": "function"
    },
    {
      "inputs": [
        {
          "internalType": "address",
          "name": "newOwner",
          "type": "address"
        }
      ],
      "name": "transferOwnership",
      "outputs": [],
      "stateMutability": "nonpayable",
      "type": "function"
    },
    {
      "inputs": [
        {
          "internalType": "address",
          "name": "",
          "type": "address"
        }
      ],
      "name": "txSentAsCommon",
      "outputs": [
        {
          "internalType": "bool",
          "name": "",
          "type": "bool"
        }
      ],
      "stateMutability": "view",
      "type": "function",
      "constant": true
    },
    {
      "inputs": [],
      "name": "toggleCommonsMint",
      "outputs": [],
      "stateMutability": "nonpayable",
      "type": "function"
    },
    {
      "inputs": [],
      "name": "toggleReveal",
      "outputs": [],
      "stateMutability": "nonpayable",
      "type": "function"
    },
    {
      "inputs": [],
      "name": "mintToCoven",
      "outputs": [],
      "stateMutability": "nonpayable",
      "type": "function"
    },
    {
      "inputs": [
        {
          "internalType": "uint256",
          "name": "amount",
          "type": "uint256"
        },
        {
          "internalType": "bytes32[]",
          "name": "proof",
          "type": "bytes32[]"
        }
      ],
      "name": "sorcerersMint",
      "outputs": [],
      "stateMutability": "nonpayable",
      "type": "function"
    },
    {
      "inputs": [],
      "name": "commonsMintPhase",
      "outputs": [],
      "stateMutability": "nonpayable",
      "type": "function"
    },
    {
      "inputs": [
        {
          "internalType": "uint256",
          "name": "tokenId",
          "type": "uint256"
        }
      ],
      "name": "tokenURI",
      "outputs": [
        {
          "internalType": "string",
          "name": "",
          "type": "string"
        }
      ],
      "stateMutability": "view",
      "type": "function",
      "constant": true
    }
  ],
  "bytecode": "0x6115b36009556037608052600160a052600260c0527fbe3a35197763e6a487d1baf617545ecbff5e9c88b7ed3a814005564bc718ed9b60e052610140604052600f6101008190526e697066733a2f2f746f42655365742f60881b6101209081526200006e91600a919062000166565b50600b805461ff0019166101001790553480156200008b57600080fd5b50604080518082018252600f81526e12195c99519bdc965bdd5c94dbdd5b608a1b60208083019182528351808501909452600a845269120d165bdd5c94dbdd5b60b21b908401528151919291620000e59160029162000166565b508051620000fb90600390602084019062000166565b50506001600055506200010e3362000114565b62000249565b600880546001600160a01b038381166001600160a01b0319831681179093556040519116919082907f8be0079c531659141344cd1fd0a4f28419497f9722a3daafe3b4186f6b6457e090600090a35050565b82805462000174906200020c565b90600052602060002090601f016020900481019282620001985760008555620001e3565b82601f10620001b357805160ff1916838001178555620001e3565b82800160010185558215620001e3579182015b82811115620001e3578251825591602001919060010190620001c6565b50620001f1929150620001f5565b5090565b5b80821115620001f15760008155600101620001f6565b600181811c908216806200022157607f821691505b602082108114156200024357634e487b7160e01b600052602260045260246000fd5b50919050565b60805160a05160c05160e05161199d620002a66000396000818161034501526112f501526000818161031e0152610d5c0152600061041a0152600081816102b90152818161095101528181610a350152610e2a015261199d6000f3fe608060405234801561001057600080fd5b50600436106102065760003560e01c8063518302271161011a5780638da5cb5b116100ad578063b5394efb1161007c578063b5394efb1461047b578063b88d4fde1461048e578063c87b56dd146104a1578063e985e9c5146104b4578063f2fde38b146104f057600080fd5b80638da5cb5b1461043c57806395d89b411461044d578063a22cb46514610455578063a31228b71461046857600080fd5b80636c0360eb116100e95780636c0360eb146103f257806370a08231146103fa578063715018a61461040d5780637437681e1461041557600080fd5b806351830227146103a7578063532f432d146103b45780635b8ad429146103d75780636352211e146103df57600080fd5b80632661ae2b1161019d578063307c24241161016c578063307c24241461036757806336bdb0a41461036f57806342842e0e14610383578063474c669d146103965780634c1974bd1461039f57600080fd5b80632661ae2b146102ee5780632a757683146102f65780632e6c6351146103195780632eb4a7ab1461034057600080fd5b806318160ddd116101d957806318160ddd146102885780632266b08e146102a25780632397b643146102b457806323b872dd146102db57600080fd5b806301ffc9a71461020b57806306fdde0314610233578063081812fc14610248578063095ea7b314610273575b600080fd5b61021e6102193660046116f5565b610503565b60405190151581526020015b60405180910390f35b61023b610555565b60405161022a9190611867565b61025b61025636600461172d565b6105e7565b6040516001600160a01b03909116815260200161022a565b6102866102813660046116cc565b61062b565b005b60015460005403600019015b60405190815260200161022a565b600b5461021e90610100900460ff1681565b6102947f000000000000000000000000000000000000000000000000000000000000000081565b6102866102e9366004611582565b6106cb565b61028661085c565b61021e610304366004611536565b600c6020526000908152604090205460ff1681565b6102947f000000000000000000000000000000000000000000000000000000000000000081565b6102947f000000000000000000000000000000000000000000000000000000000000000081565b610286610883565b600b5461021e906301000000900460ff1681565b610286610391366004611582565b6109f0565b61029460095481565b610286610a10565b600b5461021e9060ff1681565b61021e6103c2366004611536565b600d6020526000908152604090205460ff1681565b610286610a6e565b61025b6103ed36600461172d565b610a8a565b61023b610a95565b610294610408366004611536565b610b23565b610286610b72565b6102947f000000000000000000000000000000000000000000000000000000000000000081565b6008546001600160a01b031661025b565b61023b610b86565b610286610463366004611692565b610b95565b600b5461021e9062010000900460ff1681565b610286610489366004611745565b610c2b565b61028661049c3660046115bd565b610eca565b61023b6104af36600461172d565b610f14565b61021e6104c2366004611550565b6001600160a01b03918216600090815260076020908152604080832093909416825291909152205460ff1690565b6102866104fe366004611536565b610fe5565b60006301ffc9a760e01b6001600160e01b03198316148061053457506380ac58cd60e01b6001600160e01b03198316145b8061054f5750635b5e139f60e01b6001600160e01b03198316145b92915050565b606060028054610564906118d5565b80601f0160208091040260200160405190810160405280929190818152602001828054610590906118d5565b80156105dd5780601f106105b2576101008083540402835291602001916105dd565b820191906000526020600020905b8154815290600101906020018083116105c057829003601f168201915b5050505050905090565b60006105f28261105e565b61060f576040516333d1c03960e21b815260040160405180910390fd5b506000908152600660205260409020546001600160a01b031690565b600061063682610a8a565b9050336001600160a01b0382161461066f5761065281336104c2565b61066f576040516367d9dca160e11b815260040160405180910390fd5b60008281526006602052604080822080546001600160a01b0319166001600160a01b0387811691821790925591518593918516917f8c5be1e5ebec7d5bd14f71427d1e84f3dd0314c0f7b2291e5b200ac8c7c3b92591a4505050565b60006106d682611093565b9050836001600160a01b0316816001600160a01b0316146107095760405162a1148160e81b815260040160405180910390fd5b60008281526006602052604090208054338082146001600160a01b038816909114176107565761073986336104c2565b61075657604051632ce44b5f60e11b815260040160405180910390fd5b6001600160a01b03851661077d57604051633a954ecd60e21b815260040160405180910390fd5b801561078857600082555b6001600160a01b038681166000908152600560205260408082208054600019019055918716808252919020805460010190554260a01b17600160e11b17600085815260046020526040902055600160e11b831661081357600184016000818152600460205260409020546108115760005481146108115760008181526004602052604090208490555b505b83856001600160a01b0316876001600160a01b03167fddf252ad1be2c89b69c2b068fc378daa952ba7f163c4a11628f55a4df523b3ef60405160405180910390a4505050505050565b6108646110fc565b600b805462ff0000198116620100009182900460ff1615909102179055565b600b5462010000900460ff166108e05760405162461bcd60e51b815260206004820152601a60248201527f436f6d6d6f6e73204d696e7420686173206e6f7420626567756e00000000000060448201526064015b60405180910390fd5b336000908152600d602052604090205460ff16156109365760405162461bcd60e51b81526020600482015260136024820152722cb7ba903430bb329039b2b73a1030903a3c1760691b60448201526064016108d7565b600061094b6001546000546000199190030190565b905060007f000000000000000000000000000000000000000000000000000000000000000060095461097d9190611892565b90508061098b83600161187a565b11156109c75760405162461bcd60e51b815260206004820152600b60248201526a26b4b73a32b21027baba1760a91b60448201526064016108d7565b6109d2336001611156565b5050336000908152600d60205260409020805460ff19166001179055565b610a0b83838360405180602001604052806000815250610eca565b505050565b610a186110fc565b600b546301000000900460ff1615610a2f57600080fd5b610a59337f0000000000000000000000000000000000000000000000000000000000000000611156565b600b805463ff00000019166301000000179055565b610a766110fc565b600b805460ff19811660ff90911615179055565b600061054f82611093565b600a8054610aa2906118d5565b80601f0160208091040260200160405190810160405280929190818152602001828054610ace906118d5565b8015610b1b5780601f10610af057610100808354040283529160200191610b1b565b820191906000526020600020905b815481529060010190602001808311610afe57829003601f168201915b505050505081565b60006001600160a01b038216610b4c576040516323d3ad8160e21b815260040160405180910390fd5b506001600160a01b031660009081526005602052604090205467ffffffffffffffff1690565b610b7a6110fc565b610b846000611233565b565b606060038054610564906118d5565b6001600160a01b038216331415610bbf5760405163b06307db60e01b815260040160405180910390fd5b3360008181526007602090815260408083206001600160a01b03871680855290835292819020805460ff191686151590811790915590519081529192917f17307eab39ab6107e8899845ad3d59bd9653f200f220920489ca2b5937696c31910160405180910390a35050565b600b5462010000900460ff1615610c7c5760405162461bcd60e51b815260206004820152601560248201527420436f6d6d6f6e73204d696e74206973206c69766560581b60448201526064016108d7565b600b54610100900460ff16610cd35760405162461bcd60e51b815260206004820152601d60248201527f536f7263657265722773206d696e7420686173206e6f7420626567756e00000060448201526064016108d7565b610cdd8282611285565b610d4f5760405162461bcd60e51b815260206004820152603c60248201527f596f752068617665206e6f74206265656e2077686974656c69737465642c747260448201527f7920796f7572206c75636b20696e20436f6d6d6f6e2773204d696e740000000060648201526084016108d7565b600083118015610d7f57507f00000000000000000000000000000000000000000000000000000000000000008311155b610daf5760405162461bcd60e51b81526020600482015260016024820152606360f81b60448201526064016108d7565b336000908152600c602052604090205460ff1615610e0f5760405162461bcd60e51b815260206004820152601e60248201527f596f752063616e27742073656e64206d6f7265207468616e20312074782e000060448201526064016108d7565b6000610e246001546000546000199190030190565b905060007f0000000000000000000000000000000000000000000000000000000000000000600954610e569190611892565b905080610e63868461187a565b1115610e9f5760405162461bcd60e51b815260206004820152600b60248201526a26b4b73a32b21027baba1760a91b60448201526064016108d7565b610ea93386611156565b5050336000908152600c60205260409020805460ff19166001179055505050565b610ed58484846106cb565b6001600160a01b0383163b15610f0e57610ef184848484611328565b610f0e576040516368d2bf6b60e11b815260040160405180910390fd5b50505050565b6060610f1f8261105e565b610f3c57604051630a14c4b560e41b815260040160405180910390fd5b6000610f4661141f565b600b5490915060ff1615610fa1578051610f6f5760405180602001604052806000815250610f9a565b80610f798461142e565b604051602001610f8a9291906117eb565b6040516020818303038152906040525b9392505050565b60405175697066733a2f2f756e72657665616c6564486173682f60501b60208201526a3434b23232b7173539b7b760a91b6036820152604101610f8a565b50919050565b610fed6110fc565b6001600160a01b0381166110525760405162461bcd60e51b815260206004820152602660248201527f4f776e61626c653a206e6577206f776e657220697320746865207a65726f206160448201526564647265737360d01b60648201526084016108d7565b61105b81611233565b50565b600081600111158015611072575060005482105b801561054f575050600090815260046020526040902054600160e01b161590565b600081806001116110e3576000548110156110e357600081815260046020526040902054600160e01b81166110e1575b80610f9a5750600019016000818152600460205260409020546110c3565b505b604051636f96cda160e11b815260040160405180910390fd5b6008546001600160a01b03163314610b845760405162461bcd60e51b815260206004820181905260248201527f4f776e61626c653a2063616c6c6572206973206e6f7420746865206f776e657260448201526064016108d7565b6000546001600160a01b03831661117f57604051622e076360e81b815260040160405180910390fd5b8161119d5760405163b562e8dd60e01b815260040160405180910390fd5b6001600160a01b038316600081815260056020526040902080546801000000000000000185020190554260a01b6001841460e11b1717600082815260046020526040902055808281015b6040516001830192906001600160a01b038716906000907fddf252ad1be2c89b69c2b068fc378daa952ba7f163c4a11628f55a4df523b3ef908290a48082106111e75760005550505050565b600880546001600160a01b038381166001600160a01b0319831681179093556040519116919082907f8be0079c531659141344cd1fd0a4f28419497f9722a3daafe3b4186f6b6457e090600090a35050565b6040516bffffffffffffffffffffffff193360601b16602082015260009081906034016040516020818303038152906040528051906020012090506113208484808060200260200160405190810160405280939291908181526020018383602002808284376000920191909152507f0000000000000000000000000000000000000000000000000000000000000000925085915061147d9050565b949350505050565b604051630a85bd0160e11b81526000906001600160a01b0385169063150b7a029061135d90339089908890889060040161182a565b602060405180830381600087803b15801561137757600080fd5b505af19250505080156113a7575060408051601f3d908101601f191682019092526113a491810190611711565b60015b611402573d8080156113d5576040519150601f19603f3d011682016040523d82523d6000602084013e6113da565b606091505b5080516113fa576040516368d2bf6b60e11b815260040160405180910390fd5b805181602001fd5b6001600160e01b031916630a85bd0160e11b149050949350505050565b6060600a8054610564906118d5565b604080516080810191829052607f0190826030600a8206018353600a90045b801561146b57600183039250600a81066030018353600a900461144d565b50819003601f19909101908152919050565b60008261148a8584611493565b14949350505050565b600081815b84518110156114e6576114d2828683815181106114c557634e487b7160e01b600052603260045260246000fd5b60200260200101516114ee565b9150806114de8161190a565b915050611498565b509392505050565b600081831061150a576000828152602084905260409020610f9a565b5060009182526020526040902090565b80356001600160a01b038116811461153157600080fd5b919050565b600060208284031215611547578081fd5b610f9a8261151a565b60008060408385031215611562578081fd5b61156b8361151a565b91506115796020840161151a565b90509250929050565b600080600060608486031215611596578081fd5b61159f8461151a565b92506115ad6020850161151a565b9150604084013590509250925092565b600080600080608085870312156115d2578081fd5b6115db8561151a565b93506115e96020860161151a565b925060408501359150606085013567ffffffffffffffff8082111561160c578283fd5b818701915087601f83011261161f578283fd5b8135818111156116315761163161193b565b604051601f8201601f19908116603f011681019083821181831017156116595761165961193b565b816040528281528a6020848701011115611671578586fd5b82602086016020830137918201602001949094529598949750929550505050565b600080604083850312156116a4578182fd5b6116ad8361151a565b9150602083013580151581146116c1578182fd5b809150509250929050565b600080604083850312156116de578182fd5b6116e78361151a565b946020939093013593505050565b600060208284031215611706578081fd5b8135610f9a81611951565b600060208284031215611722578081fd5b8151610f9a81611951565b60006020828403121561173e578081fd5b5035919050565b600080600060408486031215611759578283fd5b83359250602084013567ffffffffffffffff80821115611777578384fd5b818601915086601f83011261178a578384fd5b813581811115611798578485fd5b8760208260051b85010111156117ac578485fd5b6020830194508093505050509250925092565b600081518084526117d78160208601602086016118a9565b601f01601f19169290920160200192915050565b600083516117fd8184602088016118a9565b8351908301906118118183602088016118a9565b64173539b7b760d91b9101908152600501949350505050565b6001600160a01b038581168252841660208201526040810183905260806060820181905260009061185d908301846117bf565b9695505050505050565b602081526000610f9a60208301846117bf565b6000821982111561188d5761188d611925565b500190565b6000828210156118a4576118a4611925565b500390565b60005b838110156118c45781810151838201526020016118ac565b83811115610f0e5750506000910152565b600181811c908216806118e957607f821691505b60208210811415610fdf57634e487b7160e01b600052602260045260246000fd5b600060001982141561191e5761191e611925565b5060010190565b634e487b7160e01b600052601160045260246000fd5b634e487b7160e01b600052604160045260246000fd5b6001600160e01b03198116811461105b57600080fdfea26469706673582212205de1d448554a2658eba6dc52cd3ce2f78d82e4bf51ada35742aa4d58b275737064736f6c63430008040033",
  "immutableReferences": {
    "14": [
      {
        "length": 32,
        "start": 697
      },
      {
        "length": 32,
        "start": 2385
      },
      {
        "length": 32,
        "start": 2613
      },
      {
        "length": 32,
        "start": 3626
      }
    ],
    "17": [
      {
        "length": 32,
        "start": 1050
      }
    ],
    "20": [
      {
        "length": 32,
        "start": 798
      },
      {
        "length": 32,
        "start": 3420
      }
    ],
    "23": [
      {
        "length": 32,
        "start": 837
      },
      {
        "length": 32,
        "start": 4853
      }
    ]
  },
  "source": "// SPDX-License-Identifier: MIT\r\n\r\npragma solidity ^0.8.4;\r\n// import \"../node_modules/@openzeppelin/contracts/token/ERC721/ERC721.sol\";\r\nimport \"../node_modules/erc721a/contracts/ERC721A.sol\";\r\nimport \"../node_modules/@openzeppelin/contracts/access/Ownable.sol\";\r\nimport \"../node_modules/@openzeppelin/contracts/utils/cryptography/MerkleProof.sol\";\r\ncontract HereForYourSoul is ERC721A,Ownable{\r\n    // @dev set the total supply of the collection\r\n    uint256 public altarSupply = 5555;\r\n    \r\n    //@dev sets the amount minted to the teams vault\r\n    uint256 public  immutable  mintToCOVEN = 55;\r\n    \r\n    uint256 public immutable maxTx = 1;\r\n    uint256 public immutable sorcererMint = 2;\r\n    // Saves Gas since we are minting just one \r\n    // uint256 public immutable commonsMint =1;\r\n    bytes32 public immutable merkleRoot = 0xbe3a35197763e6a487d1baf617545ecbff5e9c88b7ed3a814005564bc718ed9b;\r\n\r\n\r\n    string public baseURI = \"ipfs://toBeSet/\";\r\n    bool public  revealed ;\r\n    bool public sorcererMintIsActive = true;\r\n    bool public commonsMintIsActive;\r\n    bool public  teamHasClaimed;\r\n\r\n    // mapping(address =>uint256) public mintPerformedAsSorcerer;\r\n    // mapping(address => uint256) public mintPerformedAsCommon;\r\n    mapping(address => bool ) public sentTxAsSorcerer;\r\n    mapping(address => bool) public txSentAsCommon;\r\n\r\n    constructor()ERC721A(\"HereForYourSoul\",\"H4YourSoul\"){}\r\n\r\n    function toggleCommonsMint() external onlyOwner{\r\n        commonsMintIsActive = !commonsMintIsActive;\r\n    }\r\n    function toggleReveal() external onlyOwner{\r\n        revealed = !revealed;\r\n    }\r\n\r\n    function mintToCoven()public onlyOwner{\r\n        require(!teamHasClaimed);\r\n        _mint(msg.sender,mintToCOVEN);\r\n        teamHasClaimed = true;\r\n\r\n    }\r\n\r\n    function _baseURI() internal override view returns(string memory){\r\n        return baseURI;\r\n    }\r\n    \r\n\r\n    function isBlessed(bytes32[] calldata proof) internal view returns(bool){\r\n        bytes32 leaf = keccak256(abi.encodePacked(msg.sender));\r\n        return MerkleProof.verify(proof, merkleRoot, leaf);\r\n    }\r\n    // a:  Commons Mint is live  and you can't mint in this phase anymore\r\n    // b: Sorcerer's mint has not begun\r\n    // c: Please enter a valid amount to mint and ensure it is not greater than 2\r\n    // d : You cant send more than one tx\r\n    function sorcerersMint(uint256 amount,bytes32[] calldata proof) public {\r\n        require(!commonsMintIsActive,\" Commons Mint is live\");\r\n        require(sorcererMintIsActive,\"Sorcerer's mint has not begun\");\r\n        require(isBlessed(proof),\"You have not been whitelisted,try your luck in Common's Mint\"); \r\n        require(amount > 0 && amount <= sorcererMint,\"c\");\r\n        require(!sentTxAsSorcerer[msg.sender],\"You can't send more than 1 tx.\");\r\n        // Saves GAs\r\n        // require(mintPerformedAsSorcerer[msg.sender] < sorcererMint, \"You can't mint more than 2\");\r\n        uint totalsupply = totalSupply();\r\n        uint availableToMint = altarSupply -mintToCOVEN;\r\n        require((totalsupply + amount)  <= availableToMint , \"Minted Out.\");\r\n        _mint(msg.sender,amount);\r\n\r\n\r\n        sentTxAsSorcerer[msg.sender] = true;\r\n        // mintPerformedAsSorcerer[msg.sender] += amount;\r\n\r\n       \r\n    }\r\n\r\n    function commonsMintPhase()public {\r\n        require(commonsMintIsActive,\"Commons Mint has not begun\");\r\n        // Save GAs\r\n        // require(amount == commonsMint,\"Can't mint more or less than 1 \");\r\n        require(!txSentAsCommon[msg.sender],\"You have sent a tx.\");\r\n        uint totalsupply = totalSupply();\r\n        uint availableToMint = altarSupply -mintToCOVEN;\r\n        require((totalsupply + 1)  <= availableToMint , \"Minted Out.\");\r\n        _mint(msg.sender,1);\r\n\r\n        txSentAsCommon[msg.sender] = true;\r\n\r\n\r\n    }\r\n    function tokenURI(uint256 tokenId) public view virtual override returns (string memory) {\r\n        if (!_exists(tokenId)) revert URIQueryForNonexistentToken();\r\n\r\n        string memory baseURI_ = _baseURI();\r\n\r\n        if(revealed){\r\n            return bytes(baseURI_).length != 0 ? string(abi.encodePacked(baseURI_, _toString(tokenId),\".json\")) : '';\r\n        }else{\r\n            return string(abi.encodePacked(\"ipfs://unrevealedHash/\",\"hidden.json\" ));\r\n        }\r\n        \r\n    }\r\n     function _startTokenId() internal view virtual override returns (uint256) {\r\n        return 1;\r\n    }\r\n\r\n}   \r\n// \r\n// [\"0x7d22b128e982b43eb57c7a0142761c730c5dee9f489bf8b5d1b4c5022f5c2e8f\",\"0x04a01326e014116187743337e92dfe097ae3600f491c6d45f09f8f3f883c9437\"] \r\n\r\n// [\"0xbd408b9e1c3182bb2fd44a1112323a3803b2965754c83f9f420b44f63d190f39\",\"0x04a01326e014116187743337e92dfe097ae3600f491c6d45f09f8f3f883c9437\"]\r\n\r\n// [\"0x76ffeac6cadc713c9d265483fe3ccba807660cbb4ab74dfd0ccd8d4a51e3ba44\"]",
  "sourcePath": "C:\\Users\\Daniel Awodeji\\Desktop\\hereForYourSoul\\truffle\\contracts\\hereForYourSoul.sol",
  "compiler": {
    "name": "solc",
    "version": "0.8.4+commit.c7e474f2.Emscripten.clang"
  },
  "schemaVersion": "3.4.4",
  "updatedAt": "2022-07-09T23:49:34.759Z",
  "networkType": "ethereum",
  "devdoc": {
    "kind": "dev",
    "methods": {
      "approve(address,uint256)": {
        "details": "See {IERC721-approve}."
      },
      "balanceOf(address)": {
        "details": "See {IERC721-balanceOf}."
      },
      "getApproved(uint256)": {
        "details": "See {IERC721-getApproved}."
      },
      "isApprovedForAll(address,address)": {
        "details": "See {IERC721-isApprovedForAll}."
      },
      "name()": {
        "details": "See {IERC721Metadata-name}."
      },
      "owner()": {
        "details": "Returns the address of the current owner."
      },
      "ownerOf(uint256)": {
        "details": "See {IERC721-ownerOf}."
      },
      "renounceOwnership()": {
        "details": "Leaves the contract without owner. It will not be possible to call `onlyOwner` functions anymore. Can only be called by the current owner. NOTE: Renouncing ownership will leave the contract without an owner, thereby removing any functionality that is only available to the owner."
      },
      "safeTransferFrom(address,address,uint256)": {
        "details": "See {IERC721-safeTransferFrom}."
      },
      "safeTransferFrom(address,address,uint256,bytes)": {
        "details": "See {IERC721-safeTransferFrom}."
      },
      "setApprovalForAll(address,bool)": {
        "details": "See {IERC721-setApprovalForAll}."
      },
      "supportsInterface(bytes4)": {
        "details": "See {IERC165-supportsInterface}."
      },
      "symbol()": {
        "details": "See {IERC721Metadata-symbol}."
      },
      "tokenURI(uint256)": {
        "details": "See {IERC721Metadata-tokenURI}."
      },
      "totalSupply()": {
        "details": "Returns the total number of tokens in existence. Burned tokens will reduce the count. To get the total number of tokens minted, please see `_totalMinted`."
      },
      "transferFrom(address,address,uint256)": {
        "details": "Transfers `tokenId` from `from` to `to`. Requirements: - `to` cannot be the zero address. - `tokenId` token must be owned by `from`. Emits a {Transfer} event."
      },
      "transferOwnership(address)": {
        "details": "Transfers ownership of the contract to a new account (`newOwner`). Can only be called by the current owner."
      }
    },
    "version": 1
  },
  "userdoc": {
    "errors": {
      "ApprovalCallerNotOwnerNorApproved()": [
        {
          "notice": "The caller must own the token or be an approved operator."
        }
      ],
      "ApprovalQueryForNonexistentToken()": [
        {
          "notice": "The token does not exist."
        }
      ],
      "ApproveToCaller()": [
        {
          "notice": "The caller cannot approve to their own address."
        }
      ],
      "BalanceQueryForZeroAddress()": [
        {
          "notice": "Cannot query the balance for the zero address."
        }
      ],
      "MintERC2309QuantityExceedsLimit()": [
        {
          "notice": "The `quantity` minted with ERC2309 exceeds the safety limit."
        }
      ],
      "MintToZeroAddress()": [
        {
          "notice": "Cannot mint to the zero address."
        }
      ],
      "MintZeroQuantity()": [
        {
          "notice": "The quantity of tokens minted must be more than zero."
        }
      ],
      "OwnerQueryForNonexistentToken()": [
        {
          "notice": "The token does not exist."
        }
      ],
      "OwnershipNotInitializedForExtraData()": [
        {
          "notice": "The `extraData` cannot be set on an unintialized ownership slot."
        }
      ],
      "TransferCallerNotOwnerNorApproved()": [
        {
          "notice": "The caller must own the token or be an approved operator."
        }
      ],
      "TransferFromIncorrectOwner()": [
        {
          "notice": "The token must be owned by `from`."
        }
      ],
      "TransferToNonERC721ReceiverImplementer()": [
        {
          "notice": "Cannot safely transfer to a contract that does not implement the ERC721Receiver interface."
        }
      ],
      "TransferToZeroAddress()": [
        {
          "notice": "Cannot transfer to the zero address."
        }
      ],
      "URIQueryForNonexistentToken()": [
        {
          "notice": "The token does not exist."
        }
      ]
    },
    "kind": "user",
    "methods": {},
    "version": 1
  }
}