{
  "contractName": "HereForYourSoul",
  "abi": [
    {
      "inputs": [],
      "stateMutability": "nonpayable",
      "type": "constructor"
    },
    {
      "inputs": [],
      "name": "ApprovalCallerNotOwnerNorApproved",
      "type": "error"
    },
    {
      "inputs": [],
      "name": "ApprovalQueryForNonexistentToken",
      "type": "error"
    },
    {
      "inputs": [],
      "name": "ApproveToCaller",
      "type": "error"
    },
    {
      "inputs": [],
      "name": "BalanceQueryForZeroAddress",
      "type": "error"
    },
    {
      "inputs": [],
      "name": "MintERC2309QuantityExceedsLimit",
      "type": "error"
    },
    {
      "inputs": [],
      "name": "MintToZeroAddress",
      "type": "error"
    },
    {
      "inputs": [],
      "name": "MintZeroQuantity",
      "type": "error"
    },
    {
      "inputs": [],
      "name": "OwnerQueryForNonexistentToken",
      "type": "error"
    },
    {
      "inputs": [],
      "name": "OwnershipNotInitializedForExtraData",
      "type": "error"
    },
    {
      "inputs": [],
      "name": "TransferCallerNotOwnerNorApproved",
      "type": "error"
    },
    {
      "inputs": [],
      "name": "TransferFromIncorrectOwner",
      "type": "error"
    },
    {
      "inputs": [],
      "name": "TransferToNonERC721ReceiverImplementer",
      "type": "error"
    },
    {
      "inputs": [],
      "name": "TransferToZeroAddress",
      "type": "error"
    },
    {
      "inputs": [],
      "name": "URIQueryForNonexistentToken",
      "type": "error"
    },
    {
      "anonymous": false,
      "inputs": [
        {
          "indexed": true,
          "internalType": "address",
          "name": "owner",
          "type": "address"
        },
        {
          "indexed": true,
          "internalType": "address",
          "name": "approved",
          "type": "address"
        },
        {
          "indexed": true,
          "internalType": "uint256",
          "name": "tokenId",
          "type": "uint256"
        }
      ],
      "name": "Approval",
      "type": "event"
    },
    {
      "anonymous": false,
      "inputs": [
        {
          "indexed": true,
          "internalType": "address",
          "name": "owner",
          "type": "address"
        },
        {
          "indexed": true,
          "internalType": "address",
          "name": "operator",
          "type": "address"
        },
        {
          "indexed": false,
          "internalType": "bool",
          "name": "approved",
          "type": "bool"
        }
      ],
      "name": "ApprovalForAll",
      "type": "event"
    },
    {
      "anonymous": false,
      "inputs": [
        {
          "indexed": true,
          "internalType": "uint256",
          "name": "fromTokenId",
          "type": "uint256"
        },
        {
          "indexed": false,
          "internalType": "uint256",
          "name": "toTokenId",
          "type": "uint256"
        },
        {
          "indexed": true,
          "internalType": "address",
          "name": "from",
          "type": "address"
        },
        {
          "indexed": true,
          "internalType": "address",
          "name": "to",
          "type": "address"
        }
      ],
      "name": "ConsecutiveTransfer",
      "type": "event"
    },
    {
      "anonymous": false,
      "inputs": [
        {
          "indexed": true,
          "internalType": "address",
          "name": "previousOwner",
          "type": "address"
        },
        {
          "indexed": true,
          "internalType": "address",
          "name": "newOwner",
          "type": "address"
        }
      ],
      "name": "OwnershipTransferred",
      "type": "event"
    },
    {
      "anonymous": false,
      "inputs": [
        {
          "indexed": true,
          "internalType": "address",
          "name": "from",
          "type": "address"
        },
        {
          "indexed": true,
          "internalType": "address",
          "name": "to",
          "type": "address"
        },
        {
          "indexed": true,
          "internalType": "uint256",
          "name": "tokenId",
          "type": "uint256"
        }
      ],
      "name": "Transfer",
      "type": "event"
    },
    {
      "inputs": [],
      "name": "altarSupply",
      "outputs": [
        {
          "internalType": "uint256",
          "name": "",
          "type": "uint256"
        }
      ],
      "stateMutability": "view",
      "type": "function",
      "constant": true
    },
    {
      "inputs": [
        {
          "internalType": "address",
          "name": "to",
          "type": "address"
        },
        {
          "internalType": "uint256",
          "name": "tokenId",
          "type": "uint256"
        }
      ],
      "name": "approve",
      "outputs": [],
      "stateMutability": "nonpayable",
      "type": "function"
    },
    {
      "inputs": [
        {
          "internalType": "address",
          "name": "owner",
          "type": "address"
        }
      ],
      "name": "balanceOf",
      "outputs": [
        {
          "internalType": "uint256",
          "name": "",
          "type": "uint256"
        }
      ],
      "stateMutability": "view",
      "type": "function",
      "constant": true
    },
    {
      "inputs": [],
      "name": "baseURI",
      "outputs": [
        {
          "internalType": "string",
          "name": "",
          "type": "string"
        }
      ],
      "stateMutability": "view",
      "type": "function",
      "constant": true
    },
    {
      "inputs": [],
      "name": "commonsMintIsActive",
      "outputs": [
        {
          "internalType": "bool",
          "name": "",
          "type": "bool"
        }
      ],
      "stateMutability": "view",
      "type": "function",
      "constant": true
    },
    {
      "inputs": [
        {
          "internalType": "uint256",
          "name": "tokenId",
          "type": "uint256"
        }
      ],
      "name": "getApproved",
      "outputs": [
        {
          "internalType": "address",
          "name": "",
          "type": "address"
        }
      ],
      "stateMutability": "view",
      "type": "function",
      "constant": true
    },
    {
      "inputs": [
        {
          "internalType": "address",
          "name": "owner",
          "type": "address"
        },
        {
          "internalType": "address",
          "name": "operator",
          "type": "address"
        }
      ],
      "name": "isApprovedForAll",
      "outputs": [
        {
          "internalType": "bool",
          "name": "",
          "type": "bool"
        }
      ],
      "stateMutability": "view",
      "type": "function",
      "constant": true
    },
    {
      "inputs": [],
      "name": "maxTx",
      "outputs": [
        {
          "internalType": "uint256",
          "name": "",
          "type": "uint256"
        }
      ],
      "stateMutability": "view",
      "type": "function",
      "constant": true
    },
    {
      "inputs": [],
      "name": "merkleRoot",
      "outputs": [
        {
          "internalType": "bytes32",
          "name": "",
          "type": "bytes32"
        }
      ],
      "stateMutability": "view",
      "type": "function",
      "constant": true
    },
    {
      "inputs": [],
      "name": "mintToCOVEN",
      "outputs": [
        {
          "internalType": "uint256",
          "name": "",
          "type": "uint256"
        }
      ],
      "stateMutability": "view",
      "type": "function",
      "constant": true
    },
    {
      "inputs": [],
      "name": "name",
      "outputs": [
        {
          "internalType": "string",
          "name": "",
          "type": "string"
        }
      ],
      "stateMutability": "view",
      "type": "function",
      "constant": true
    },
    {
      "inputs": [],
      "name": "owner",
      "outputs": [
        {
          "internalType": "address",
          "name": "",
          "type": "address"
        }
      ],
      "stateMutability": "view",
      "type": "function",
      "constant": true
    },
    {
      "inputs": [
        {
          "internalType": "uint256",
          "name": "tokenId",
          "type": "uint256"
        }
      ],
      "name": "ownerOf",
      "outputs": [
        {
          "internalType": "address",
          "name": "",
          "type": "address"
        }
      ],
      "stateMutability": "view",
      "type": "function",
      "constant": true
    },
    {
      "inputs": [],
      "name": "renounceOwnership",
      "outputs": [],
      "stateMutability": "nonpayable",
      "type": "function"
    },
    {
      "inputs": [],
      "name": "revealed",
      "outputs": [
        {
          "internalType": "bool",
          "name": "",
          "type": "bool"
        }
      ],
      "stateMutability": "view",
      "type": "function",
      "constant": true
    },
    {
      "inputs": [
        {
          "internalType": "address",
          "name": "from",
          "type": "address"
        },
        {
          "internalType": "address",
          "name": "to",
          "type": "address"
        },
        {
          "internalType": "uint256",
          "name": "tokenId",
          "type": "uint256"
        }
      ],
      "name": "safeTransferFrom",
      "outputs": [],
      "stateMutability": "nonpayable",
      "type": "function"
    },
    {
      "inputs": [
        {
          "internalType": "address",
          "name": "from",
          "type": "address"
        },
        {
          "internalType": "address",
          "name": "to",
          "type": "address"
        },
        {
          "internalType": "uint256",
          "name": "tokenId",
          "type": "uint256"
        },
        {
          "internalType": "bytes",
          "name": "_data",
          "type": "bytes"
        }
      ],
      "name": "safeTransferFrom",
      "outputs": [],
      "stateMutability": "nonpayable",
      "type": "function"
    },
    {
      "inputs": [
        {
          "internalType": "address",
          "name": "",
          "type": "address"
        }
      ],
      "name": "sentTxAsSorcerer",
      "outputs": [
        {
          "internalType": "bool",
          "name": "",
          "type": "bool"
        }
      ],
      "stateMutability": "view",
      "type": "function",
      "constant": true
    },
    {
      "inputs": [
        {
          "internalType": "address",
          "name": "operator",
          "type": "address"
        },
        {
          "internalType": "bool",
          "name": "approved",
          "type": "bool"
        }
      ],
      "name": "setApprovalForAll",
      "outputs": [],
      "stateMutability": "nonpayable",
      "type": "function"
    },
    {
      "inputs": [],
      "name": "sorcererMint",
      "outputs": [
        {
          "internalType": "uint256",
          "name": "",
          "type": "uint256"
        }
      ],
      "stateMutability": "view",
      "type": "function",
      "constant": true
    },
    {
      "inputs": [],
      "name": "sorcererMintIsActive",
      "outputs": [
        {
          "internalType": "bool",
          "name": "",
          "type": "bool"
        }
      ],
      "stateMutability": "view",
      "type": "function",
      "constant": true
    },
    {
      "inputs": [
        {
          "internalType": "bytes4",
          "name": "interfaceId",
          "type": "bytes4"
        }
      ],
      "name": "supportsInterface",
      "outputs": [
        {
          "internalType": "bool",
          "name": "",
          "type": "bool"
        }
      ],
      "stateMutability": "view",
      "type": "function",
      "constant": true
    },
    {
      "inputs": [],
      "name": "symbol",
      "outputs": [
        {
          "internalType": "string",
          "name": "",
          "type": "string"
        }
      ],
      "stateMutability": "view",
      "type": "function",
      "constant": true
    },
    {
      "inputs": [],
      "name": "teamHasClaimed",
      "outputs": [
        {
          "internalType": "bool",
          "name": "",
          "type": "bool"
        }
      ],
      "stateMutability": "view",
      "type": "function",
      "constant": true
    },
    {
      "inputs": [
        {
          "internalType": "uint256",
          "name": "tokenId",
          "type": "uint256"
        }
      ],
      "name": "tokenURI",
      "outputs": [
        {
          "internalType": "string",
          "name": "",
          "type": "string"
        }
      ],
      "stateMutability": "view",
      "type": "function",
      "constant": true
    },
    {
      "inputs": [],
      "name": "totalSupply",
      "outputs": [
        {
          "internalType": "uint256",
          "name": "",
          "type": "uint256"
        }
      ],
      "stateMutability": "view",
      "type": "function",
      "constant": true
    },
    {
      "inputs": [
        {
          "internalType": "address",
          "name": "from",
          "type": "address"
        },
        {
          "internalType": "address",
          "name": "to",
          "type": "address"
        },
        {
          "internalType": "uint256",
          "name": "tokenId",
          "type": "uint256"
        }
      ],
      "name": "transferFrom",
      "outputs": [],
      "stateMutability": "nonpayable",
      "type": "function"
    },
    {
      "inputs": [
        {
          "internalType": "address",
          "name": "newOwner",
          "type": "address"
        }
      ],
      "name": "transferOwnership",
      "outputs": [],
      "stateMutability": "nonpayable",
      "type": "function"
    },
    {
      "inputs": [
        {
          "internalType": "address",
          "name": "",
          "type": "address"
        }
      ],
      "name": "txSentAsCommon",
      "outputs": [
        {
          "internalType": "bool",
          "name": "",
          "type": "bool"
        }
      ],
      "stateMutability": "view",
      "type": "function",
      "constant": true
    },
    {
      "inputs": [],
      "name": "toggleCommonsMint",
      "outputs": [],
      "stateMutability": "nonpayable",
      "type": "function"
    },
    {
      "inputs": [],
      "name": "mintToCoven",
      "outputs": [],
      "stateMutability": "nonpayable",
      "type": "function"
    },
    {
      "inputs": [
        {
          "internalType": "uint256",
          "name": "amount",
          "type": "uint256"
        },
        {
          "internalType": "bytes32[]",
          "name": "proof",
          "type": "bytes32[]"
        }
      ],
      "name": "sorcerersMint",
      "outputs": [],
      "stateMutability": "nonpayable",
      "type": "function"
    },
    {
      "inputs": [],
      "name": "commonsMintPhase",
      "outputs": [],
      "stateMutability": "nonpayable",
      "type": "function"
    }
  ],
  "bytecode": "0x6115b36009556037608052600160a052600260c0527f1bfab583593848c26f149cb904997f62124659eca80be648880813d6411fbc3b60e052610140604052600f6101008190526e697066733a2f2f746f42655365742f60881b6101209081526200006e91600a919062000156565b503480156200007c57600080fd5b50604080518082018252600f81526e12195c99519bdc965bdd5c94dbdd5b608a1b60208083019182528351808501909452600a845269120d165bdd5c94dbdd5b60b21b908401528151919291620000d69160029162000156565b508051620000ec90600390602084019062000156565b50506000805550620000fe3362000104565b62000239565b600880546001600160a01b038381166001600160a01b0319831681179093556040519116919082907f8be0079c531659141344cd1fd0a4f28419497f9722a3daafe3b4186f6b6457e090600090a35050565b8280546200016490620001fc565b90600052602060002090601f016020900481019282620001885760008555620001d3565b82601f10620001a357805160ff1916838001178555620001d3565b82800160010185558215620001d3579182015b82811115620001d3578251825591602001919060010190620001b6565b50620001e1929150620001e5565b5090565b5b80821115620001e15760008155600101620001e6565b600181811c908216806200021157607f821691505b602082108114156200023357634e487b7160e01b600052602260045260246000fd5b50919050565b60805160a05160c05160e0516118f26200029660003960008181610336015261125401526000818161030f0152610d23015260006104030152600081816102aa0152818161093401528181610a180152610deb01526118f26000f3fe608060405234801561001057600080fd5b50600436106101fb5760003560e01c80634c1974bd1161011a5780638da5cb5b116100ad578063b5394efb1161007c578063b5394efb14610464578063b88d4fde14610477578063c87b56dd1461048a578063e985e9c51461049d578063f2fde38b146104d957600080fd5b80638da5cb5b1461042557806395d89b4114610436578063a22cb4651461043e578063a31228b71461045157600080fd5b80636c0360eb116100e95780636c0360eb146103db57806370a08231146103e3578063715018a6146103f65780637437681e146103fe57600080fd5b80634c1974bd146103905780635183022714610398578063532f432d146103a55780636352211e146103c857600080fd5b80632661ae2b11610192578063307c242411610161578063307c24241461035857806336bdb0a41461036057806342842e0e14610374578063474c669d1461038757600080fd5b80632661ae2b146102df5780632a757683146102e75780632e6c63511461030a5780632eb4a7ab1461033157600080fd5b806318160ddd116101ce57806318160ddd1461027d5780632266b08e146102935780632397b643146102a557806323b872dd146102cc57600080fd5b806301ffc9a71461020057806306fdde0314610228578063081812fc1461023d578063095ea7b314610268575b600080fd5b61021361020e366004611654565b6104ec565b60405190151581526020015b60405180910390f35b61023061053e565b60405161021f91906117b6565b61025061024b36600461168c565b6105d0565b6040516001600160a01b03909116815260200161021f565b61027b61027636600461162b565b610614565b005b600154600054035b60405190815260200161021f565b600b5461021390610100900460ff1681565b6102857f000000000000000000000000000000000000000000000000000000000000000081565b61027b6102da3660046114e1565b6106b4565b61027b610845565b6102136102f5366004611495565b600c6020526000908152604090205460ff1681565b6102857f000000000000000000000000000000000000000000000000000000000000000081565b6102857f000000000000000000000000000000000000000000000000000000000000000081565b61027b61086c565b600b54610213906301000000900460ff1681565b61027b6103823660046114e1565b6109d3565b61028560095481565b61027b6109f3565b600b546102139060ff1681565b6102136103b3366004611495565b600d6020526000908152604090205460ff1681565b6102506103d636600461168c565b610a51565b610230610a5c565b6102856103f1366004611495565b610aea565b61027b610b39565b6102857f000000000000000000000000000000000000000000000000000000000000000081565b6008546001600160a01b0316610250565b610230610b4d565b61027b61044c3660046115f1565b610b5c565b600b546102139062010000900460ff1681565b61027b6104723660046116a4565b610bf2565b61027b61048536600461151c565b610e8b565b61023061049836600461168c565b610ed5565b6102136104ab3660046114af565b6001600160a01b03918216600090815260076020908152604080832093909416825291909152205460ff1690565b61027b6104e7366004611495565b610f5a565b60006301ffc9a760e01b6001600160e01b03198316148061051d57506380ac58cd60e01b6001600160e01b03198316145b806105385750635b5e139f60e01b6001600160e01b03198316145b92915050565b60606002805461054d90611824565b80601f016020809104026020016040519081016040528092919081815260200182805461057990611824565b80156105c65780601f1061059b576101008083540402835291602001916105c6565b820191906000526020600020905b8154815290600101906020018083116105a957829003601f168201915b5050505050905090565b60006105db82610fd3565b6105f8576040516333d1c03960e21b815260040160405180910390fd5b506000908152600660205260409020546001600160a01b031690565b600061061f82610a51565b9050336001600160a01b038216146106585761063b81336104ab565b610658576040516367d9dca160e11b815260040160405180910390fd5b60008281526006602052604080822080546001600160a01b0319166001600160a01b0387811691821790925591518593918516917f8c5be1e5ebec7d5bd14f71427d1e84f3dd0314c0f7b2291e5b200ac8c7c3b92591a4505050565b60006106bf82610ffa565b9050836001600160a01b0316816001600160a01b0316146106f25760405162a1148160e81b815260040160405180910390fd5b60008281526006602052604090208054338082146001600160a01b0388169091141761073f5761072286336104ab565b61073f57604051632ce44b5f60e11b815260040160405180910390fd5b6001600160a01b03851661076657604051633a954ecd60e21b815260040160405180910390fd5b801561077157600082555b6001600160a01b038681166000908152600560205260408082208054600019019055918716808252919020805460010190554260a01b17600160e11b17600085815260046020526040902055600160e11b83166107fc57600184016000818152600460205260409020546107fa5760005481146107fa5760008181526004602052604090208490555b505b83856001600160a01b0316876001600160a01b03167fddf252ad1be2c89b69c2b068fc378daa952ba7f163c4a11628f55a4df523b3ef60405160405180910390a4505050505050565b61084d61105b565b600b805462ff0000198116620100009182900460ff1615909102179055565b600b5462010000900460ff166108c95760405162461bcd60e51b815260206004820152601a60248201527f436f6d6d6f6e73204d696e7420686173206e6f7420626567756e00000000000060448201526064015b60405180910390fd5b336000908152600d602052604090205460ff161561091f5760405162461bcd60e51b81526020600482015260136024820152722cb7ba903430bb329039b2b73a1030903a3c1760691b60448201526064016108c0565b600061092e6001546000540390565b905060007f000000000000000000000000000000000000000000000000000000000000000060095461096091906117e1565b90508061096e8360016117c9565b11156109aa5760405162461bcd60e51b815260206004820152600b60248201526a26b4b73a32b21027baba1760a91b60448201526064016108c0565b6109b53360016110b5565b5050336000908152600d60205260409020805460ff19166001179055565b6109ee83838360405180602001604052806000815250610e8b565b505050565b6109fb61105b565b600b546301000000900460ff1615610a1257600080fd5b610a3c337f00000000000000000000000000000000000000000000000000000000000000006110b5565b600b805463ff00ff0019166301000100179055565b600061053882610ffa565b600a8054610a6990611824565b80601f0160208091040260200160405190810160405280929190818152602001828054610a9590611824565b8015610ae25780601f10610ab757610100808354040283529160200191610ae2565b820191906000526020600020905b815481529060010190602001808311610ac557829003601f168201915b505050505081565b60006001600160a01b038216610b13576040516323d3ad8160e21b815260040160405180910390fd5b506001600160a01b031660009081526005602052604090205467ffffffffffffffff1690565b610b4161105b565b610b4b6000611192565b565b60606003805461054d90611824565b6001600160a01b038216331415610b865760405163b06307db60e01b815260040160405180910390fd5b3360008181526007602090815260408083206001600160a01b03871680855290835292819020805460ff191686151590811790915590519081529192917f17307eab39ab6107e8899845ad3d59bd9653f200f220920489ca2b5937696c31910160405180910390a35050565b600b5462010000900460ff1615610c435760405162461bcd60e51b815260206004820152601560248201527420436f6d6d6f6e73204d696e74206973206c69766560581b60448201526064016108c0565b600b54610100900460ff16610c9a5760405162461bcd60e51b815260206004820152601d60248201527f536f7263657265722773206d696e7420686173206e6f7420626567756e00000060448201526064016108c0565b610ca482826111e4565b610d165760405162461bcd60e51b815260206004820152603c60248201527f596f752068617665206e6f74206265656e2077686974656c69737465642c747260448201527f7920796f7572206c75636b20696e20436f6d6d6f6e2773204d696e740000000060648201526084016108c0565b600083118015610d4657507f00000000000000000000000000000000000000000000000000000000000000008311155b610d765760405162461bcd60e51b81526020600482015260016024820152606360f81b60448201526064016108c0565b336000908152600c602052604090205460ff1615610dd65760405162461bcd60e51b815260206004820152601e60248201527f596f752063616e27742073656e64206d6f7265207468616e20312074782e000060448201526064016108c0565b6000610de56001546000540390565b905060007f0000000000000000000000000000000000000000000000000000000000000000600954610e1791906117e1565b905080610e2486846117c9565b1115610e605760405162461bcd60e51b815260206004820152600b60248201526a26b4b73a32b21027baba1760a91b60448201526064016108c0565b610e6a33866110b5565b5050336000908152600c60205260409020805460ff19166001179055505050565b610e968484846106b4565b6001600160a01b0383163b15610ecf57610eb284848484611287565b610ecf576040516368d2bf6b60e11b815260040160405180910390fd5b50505050565b6060610ee082610fd3565b610efd57604051630a14c4b560e41b815260040160405180910390fd5b6000610f0761137e565b9050805160001415610f285760405180602001604052806000815250610f53565b80610f328461138d565b604051602001610f4392919061174a565b6040516020818303038152906040525b9392505050565b610f6261105b565b6001600160a01b038116610fc75760405162461bcd60e51b815260206004820152602660248201527f4f776e61626c653a206e6577206f776e657220697320746865207a65726f206160448201526564647265737360d01b60648201526084016108c0565b610fd081611192565b50565b6000805482108015610538575050600090815260046020526040902054600160e01b161590565b60008160005481101561104257600081815260046020526040902054600160e01b8116611040575b80610f53575060001901600081815260046020526040902054611022565b505b604051636f96cda160e11b815260040160405180910390fd5b6008546001600160a01b03163314610b4b5760405162461bcd60e51b815260206004820181905260248201527f4f776e61626c653a2063616c6c6572206973206e6f7420746865206f776e657260448201526064016108c0565b6000546001600160a01b0383166110de57604051622e076360e81b815260040160405180910390fd5b816110fc5760405163b562e8dd60e01b815260040160405180910390fd5b6001600160a01b038316600081815260056020526040902080546801000000000000000185020190554260a01b6001841460e11b1717600082815260046020526040902055808281015b6040516001830192906001600160a01b038716906000907fddf252ad1be2c89b69c2b068fc378daa952ba7f163c4a11628f55a4df523b3ef908290a48082106111465760005550505050565b600880546001600160a01b038381166001600160a01b0319831681179093556040519116919082907f8be0079c531659141344cd1fd0a4f28419497f9722a3daafe3b4186f6b6457e090600090a35050565b6040516bffffffffffffffffffffffff193360601b166020820152600090819060340160405160208183030381529060405280519060200120905061127f8484808060200260200160405190810160405280939291908181526020018383602002808284376000920191909152507f000000000000000000000000000000000000000000000000000000000000000092508591506113dc9050565b949350505050565b604051630a85bd0160e11b81526000906001600160a01b0385169063150b7a02906112bc903390899088908890600401611779565b602060405180830381600087803b1580156112d657600080fd5b505af1925050508015611306575060408051601f3d908101601f1916820190925261130391810190611670565b60015b611361573d808015611334576040519150601f19603f3d011682016040523d82523d6000602084013e611339565b606091505b508051611359576040516368d2bf6b60e11b815260040160405180910390fd5b805181602001fd5b6001600160e01b031916630a85bd0160e11b149050949350505050565b6060600a805461054d90611824565b604080516080810191829052607f0190826030600a8206018353600a90045b80156113ca57600183039250600a81066030018353600a90046113ac565b50819003601f19909101908152919050565b6000826113e985846113f2565b14949350505050565b600081815b8451811015611445576114318286838151811061142457634e487b7160e01b600052603260045260246000fd5b602002602001015161144d565b91508061143d8161185f565b9150506113f7565b509392505050565b6000818310611469576000828152602084905260409020610f53565b5060009182526020526040902090565b80356001600160a01b038116811461149057600080fd5b919050565b6000602082840312156114a6578081fd5b610f5382611479565b600080604083850312156114c1578081fd5b6114ca83611479565b91506114d860208401611479565b90509250929050565b6000806000606084860312156114f5578081fd5b6114fe84611479565b925061150c60208501611479565b9150604084013590509250925092565b60008060008060808587031215611531578081fd5b61153a85611479565b935061154860208601611479565b925060408501359150606085013567ffffffffffffffff8082111561156b578283fd5b818701915087601f83011261157e578283fd5b81358181111561159057611590611890565b604051601f8201601f19908116603f011681019083821181831017156115b8576115b8611890565b816040528281528a60208487010111156115d0578586fd5b82602086016020830137918201602001949094529598949750929550505050565b60008060408385031215611603578182fd5b61160c83611479565b915060208301358015158114611620578182fd5b809150509250929050565b6000806040838503121561163d578182fd5b61164683611479565b946020939093013593505050565b600060208284031215611665578081fd5b8135610f53816118a6565b600060208284031215611681578081fd5b8151610f53816118a6565b60006020828403121561169d578081fd5b5035919050565b6000806000604084860312156116b8578283fd5b83359250602084013567ffffffffffffffff808211156116d6578384fd5b818601915086601f8301126116e9578384fd5b8135818111156116f7578485fd5b8760208260051b850101111561170b578485fd5b6020830194508093505050509250925092565b600081518084526117368160208601602086016117f8565b601f01601f19169290920160200192915050565b6000835161175c8184602088016117f8565b8351908301906117708183602088016117f8565b01949350505050565b6001600160a01b03858116825284166020820152604081018390526080606082018190526000906117ac9083018461171e565b9695505050505050565b602081526000610f53602083018461171e565b600082198211156117dc576117dc61187a565b500190565b6000828210156117f3576117f361187a565b500390565b60005b838110156118135781810151838201526020016117fb565b83811115610ecf5750506000910152565b600181811c9082168061183857607f821691505b6020821081141561185957634e487b7160e01b600052602260045260246000fd5b50919050565b60006000198214156118735761187361187a565b5060010190565b634e487b7160e01b600052601160045260246000fd5b634e487b7160e01b600052604160045260246000fd5b6001600160e01b031981168114610fd057600080fdfea2646970667358221220dda0e670f269c68d11afaa3bab45d19ccd18f2f543ccbed05fa8ba380ca44c3a64736f6c63430008040033",
  "immutableReferences": {
    "14": [
      {
        "length": 32,
        "start": 682
      },
      {
        "length": 32,
        "start": 2356
      },
      {
        "length": 32,
        "start": 2584
      },
      {
        "length": 32,
        "start": 3563
      }
    ],
    "17": [
      {
        "length": 32,
        "start": 1027
      }
    ],
    "20": [
      {
        "length": 32,
        "start": 783
      },
      {
        "length": 32,
        "start": 3363
      }
    ],
    "23": [
      {
        "length": 32,
        "start": 822
      },
      {
        "length": 32,
        "start": 4692
      }
    ]
  },
  "source": "// SPDX-License-Identifier: MIT\r\n\r\npragma solidity ^0.8.4;\r\n// import \"../node_modules/@openzeppelin/contracts/token/ERC721/ERC721.sol\";\r\nimport \"../node_modules/erc721a/contracts/ERC721A.sol\";\r\nimport \"../node_modules/@openzeppelin/contracts/access/Ownable.sol\";\r\nimport \"../node_modules/@openzeppelin/contracts/utils/cryptography/MerkleProof.sol\";\r\n\r\ncontract HereForYourSoul is ERC721A,Ownable{\r\n    // @dev set the total supply of the collection\r\n    uint256 public altarSupply = 5555;\r\n    \r\n    //@dev sets the amount minted to the teams vault\r\n    uint256 public  immutable  mintToCOVEN = 55;\r\n    \r\n    uint256 public immutable maxTx = 1;\r\n    uint256 public immutable sorcererMint = 2;\r\n    // Saves Gas since we are minting just one \r\n    // uint256 public immutable commonsMint =1;\r\n    bytes32 public immutable merkleRoot = 0x1bfab583593848c26f149cb904997f62124659eca80be648880813d6411fbc3b;\r\n\r\n\r\n    string public baseURI = \"ipfs://toBeSet/\";\r\n    bool public  revealed ;\r\n    bool public sorcererMintIsActive;\r\n    bool public commonsMintIsActive;\r\n    bool public  teamHasClaimed;\r\n\r\n    // mapping(address =>uint256) public mintPerformedAsSorcerer;\r\n    // mapping(address => uint256) public mintPerformedAsCommon;\r\n    mapping(address => bool ) public sentTxAsSorcerer;\r\n    mapping(address => bool) public txSentAsCommon;\r\n\r\n    constructor()ERC721A(\"HereForYourSoul\",\"H4YourSoul\"){}\r\n\r\n    function toggleCommonsMint() external onlyOwner{\r\n        commonsMintIsActive = !commonsMintIsActive;\r\n    }\r\n\r\n    function mintToCoven()public onlyOwner{\r\n        require(!teamHasClaimed);\r\n        _mint(msg.sender,mintToCOVEN);\r\n        sorcererMintIsActive = true;\r\n        teamHasClaimed = true;\r\n\r\n    }\r\n\r\n    function _baseURI() internal override view returns(string memory){\r\n        return baseURI;\r\n    }\r\n    \r\n\r\n    function isBlessed(bytes32[] calldata proof) internal view returns(bool){\r\n        bytes32 leaf = keccak256(abi.encodePacked(msg.sender));\r\n        return MerkleProof.verify(proof, merkleRoot, leaf);\r\n    }\r\n    // a:  Commons Mint is live  and you can't mint in this phase anymore\r\n    // b: Sorcerer's mint has not begun\r\n    // c: Please enter a valid amount to mint and ensure it is not greater than 2\r\n    // d : You cant send more than one tx\r\n    function sorcerersMint(uint256 amount,bytes32[] calldata proof) public {\r\n        require(!commonsMintIsActive,\" Commons Mint is live\");\r\n        require(sorcererMintIsActive,\"Sorcerer's mint has not begun\");\r\n        require(isBlessed(proof),\"You have not been whitelisted,try your luck in Common's Mint\"); \r\n        require(amount > 0 && amount <= sorcererMint,\"c\");\r\n        require(!sentTxAsSorcerer[msg.sender],\"You can't send more than 1 tx.\");\r\n        // Saves GAs\r\n        // require(mintPerformedAsSorcerer[msg.sender] < sorcererMint, \"You can't mint more than 2\");\r\n        uint totalsupply = totalSupply();\r\n        uint availableToMint = altarSupply -mintToCOVEN;\r\n        require((totalsupply + amount)  <= availableToMint , \"Minted Out.\");\r\n        _mint(msg.sender,amount);\r\n\r\n\r\n        sentTxAsSorcerer[msg.sender] = true;\r\n        // mintPerformedAsSorcerer[msg.sender] += amount;\r\n\r\n       \r\n    }\r\n\r\n    function commonsMintPhase()public {\r\n        require(commonsMintIsActive,\"Commons Mint has not begun\");\r\n        // Save GAs\r\n        // require(amount == commonsMint,\"Can't mint more or less than 1 \");\r\n        require(!txSentAsCommon[msg.sender],\"You have sent a tx.\");\r\n        uint totalsupply = totalSupply();\r\n        uint availableToMint = altarSupply -mintToCOVEN;\r\n        require((totalsupply + 1)  <= availableToMint , \"Minted Out.\");\r\n        _mint(msg.sender,1);\r\n\r\n        txSentAsCommon[msg.sender] = true;\r\n\r\n\r\n    }\r\n\r\n}    \r\n\r\n// //     //\r\n//     [\r\n//   \"0xcefcf29b4e023f4f06af91658414b2c466bd96c3974d4192aaca513a27ccbdf2\",\r\n//   \"0x1c04101d820837d31c90304f93c972bb74e88d097df556e82bed5ddda0325831\"\r\n// ]\r\n// // // // \r\n// [\"0x523bab317f97a6c3bd085b8092501712bbd7f538a83f76171561ed61f319c995\",\"0x1c04101d820837d31c90304f93c972bb74e88d097df556e82bed5ddda0325831\"]\r\n\r\n// // [\"0x393fd3a706d508a2a3d970f3288798a446c904cd61be94ce00eae67afbb6c2ca\"]\r\n\r\n// }",
  "sourcePath": "C:\\Users\\Daniel Awodeji\\Desktop\\hereForYourSoul\\truffle\\contracts\\hereForYourSoul.sol",
  "compiler": {
    "name": "solc",
    "version": "0.8.4+commit.c7e474f2.Emscripten.clang"
  },
  "schemaVersion": "3.4.4",
  "updatedAt": "2022-07-09T00:22:52.531Z",
  "networkType": "ethereum",
  "devdoc": {
    "kind": "dev",
    "methods": {
      "approve(address,uint256)": {
        "details": "See {IERC721-approve}."
      },
      "balanceOf(address)": {
        "details": "See {IERC721-balanceOf}."
      },
      "getApproved(uint256)": {
        "details": "See {IERC721-getApproved}."
      },
      "isApprovedForAll(address,address)": {
        "details": "See {IERC721-isApprovedForAll}."
      },
      "name()": {
        "details": "See {IERC721Metadata-name}."
      },
      "owner()": {
        "details": "Returns the address of the current owner."
      },
      "ownerOf(uint256)": {
        "details": "See {IERC721-ownerOf}."
      },
      "renounceOwnership()": {
        "details": "Leaves the contract without owner. It will not be possible to call `onlyOwner` functions anymore. Can only be called by the current owner. NOTE: Renouncing ownership will leave the contract without an owner, thereby removing any functionality that is only available to the owner."
      },
      "safeTransferFrom(address,address,uint256)": {
        "details": "See {IERC721-safeTransferFrom}."
      },
      "safeTransferFrom(address,address,uint256,bytes)": {
        "details": "See {IERC721-safeTransferFrom}."
      },
      "setApprovalForAll(address,bool)": {
        "details": "See {IERC721-setApprovalForAll}."
      },
      "supportsInterface(bytes4)": {
        "details": "See {IERC165-supportsInterface}."
      },
      "symbol()": {
        "details": "See {IERC721Metadata-symbol}."
      },
      "tokenURI(uint256)": {
        "details": "See {IERC721Metadata-tokenURI}."
      },
      "totalSupply()": {
        "details": "Returns the total number of tokens in existence. Burned tokens will reduce the count. To get the total number of tokens minted, please see `_totalMinted`."
      },
      "transferFrom(address,address,uint256)": {
        "details": "Transfers `tokenId` from `from` to `to`. Requirements: - `to` cannot be the zero address. - `tokenId` token must be owned by `from`. Emits a {Transfer} event."
      },
      "transferOwnership(address)": {
        "details": "Transfers ownership of the contract to a new account (`newOwner`). Can only be called by the current owner."
      }
    },
    "version": 1
  },
  "userdoc": {
    "errors": {
      "ApprovalCallerNotOwnerNorApproved()": [
        {
          "notice": "The caller must own the token or be an approved operator."
        }
      ],
      "ApprovalQueryForNonexistentToken()": [
        {
          "notice": "The token does not exist."
        }
      ],
      "ApproveToCaller()": [
        {
          "notice": "The caller cannot approve to their own address."
        }
      ],
      "BalanceQueryForZeroAddress()": [
        {
          "notice": "Cannot query the balance for the zero address."
        }
      ],
      "MintERC2309QuantityExceedsLimit()": [
        {
          "notice": "The `quantity` minted with ERC2309 exceeds the safety limit."
        }
      ],
      "MintToZeroAddress()": [
        {
          "notice": "Cannot mint to the zero address."
        }
      ],
      "MintZeroQuantity()": [
        {
          "notice": "The quantity of tokens minted must be more than zero."
        }
      ],
      "OwnerQueryForNonexistentToken()": [
        {
          "notice": "The token does not exist."
        }
      ],
      "OwnershipNotInitializedForExtraData()": [
        {
          "notice": "The `extraData` cannot be set on an unintialized ownership slot."
        }
      ],
      "TransferCallerNotOwnerNorApproved()": [
        {
          "notice": "The caller must own the token or be an approved operator."
        }
      ],
      "TransferFromIncorrectOwner()": [
        {
          "notice": "The token must be owned by `from`."
        }
      ],
      "TransferToNonERC721ReceiverImplementer()": [
        {
          "notice": "Cannot safely transfer to a contract that does not implement the ERC721Receiver interface."
        }
      ],
      "TransferToZeroAddress()": [
        {
          "notice": "Cannot transfer to the zero address."
        }
      ],
      "URIQueryForNonexistentToken()": [
        {
          "notice": "The token does not exist."
        }
      ]
    },
    "kind": "user",
    "methods": {},
    "version": 1
  }
}