{
  "contractName": "HereForYourSoul",
  "abi": [
    {
      "inputs": [],
      "stateMutability": "nonpayable",
      "type": "constructor"
    },
    {
      "inputs": [],
      "name": "ApprovalCallerNotOwnerNorApproved",
      "type": "error"
    },
    {
      "inputs": [],
      "name": "ApprovalQueryForNonexistentToken",
      "type": "error"
    },
    {
      "inputs": [],
      "name": "ApproveToCaller",
      "type": "error"
    },
    {
      "inputs": [],
      "name": "BalanceQueryForZeroAddress",
      "type": "error"
    },
    {
      "inputs": [],
      "name": "MintERC2309QuantityExceedsLimit",
      "type": "error"
    },
    {
      "inputs": [],
      "name": "MintToZeroAddress",
      "type": "error"
    },
    {
      "inputs": [],
      "name": "MintZeroQuantity",
      "type": "error"
    },
    {
      "inputs": [],
      "name": "OwnerQueryForNonexistentToken",
      "type": "error"
    },
    {
      "inputs": [],
      "name": "OwnershipNotInitializedForExtraData",
      "type": "error"
    },
    {
      "inputs": [],
      "name": "TransferCallerNotOwnerNorApproved",
      "type": "error"
    },
    {
      "inputs": [],
      "name": "TransferFromIncorrectOwner",
      "type": "error"
    },
    {
      "inputs": [],
      "name": "TransferToNonERC721ReceiverImplementer",
      "type": "error"
    },
    {
      "inputs": [],
      "name": "TransferToZeroAddress",
      "type": "error"
    },
    {
      "inputs": [],
      "name": "URIQueryForNonexistentToken",
      "type": "error"
    },
    {
      "anonymous": false,
      "inputs": [
        {
          "indexed": true,
          "internalType": "address",
          "name": "owner",
          "type": "address"
        },
        {
          "indexed": true,
          "internalType": "address",
          "name": "approved",
          "type": "address"
        },
        {
          "indexed": true,
          "internalType": "uint256",
          "name": "tokenId",
          "type": "uint256"
        }
      ],
      "name": "Approval",
      "type": "event"
    },
    {
      "anonymous": false,
      "inputs": [
        {
          "indexed": true,
          "internalType": "address",
          "name": "owner",
          "type": "address"
        },
        {
          "indexed": true,
          "internalType": "address",
          "name": "operator",
          "type": "address"
        },
        {
          "indexed": false,
          "internalType": "bool",
          "name": "approved",
          "type": "bool"
        }
      ],
      "name": "ApprovalForAll",
      "type": "event"
    },
    {
      "anonymous": false,
      "inputs": [
        {
          "indexed": true,
          "internalType": "uint256",
          "name": "fromTokenId",
          "type": "uint256"
        },
        {
          "indexed": false,
          "internalType": "uint256",
          "name": "toTokenId",
          "type": "uint256"
        },
        {
          "indexed": true,
          "internalType": "address",
          "name": "from",
          "type": "address"
        },
        {
          "indexed": true,
          "internalType": "address",
          "name": "to",
          "type": "address"
        }
      ],
      "name": "ConsecutiveTransfer",
      "type": "event"
    },
    {
      "anonymous": false,
      "inputs": [
        {
          "indexed": true,
          "internalType": "address",
          "name": "previousOwner",
          "type": "address"
        },
        {
          "indexed": true,
          "internalType": "address",
          "name": "newOwner",
          "type": "address"
        }
      ],
      "name": "OwnershipTransferred",
      "type": "event"
    },
    {
      "anonymous": false,
      "inputs": [
        {
          "indexed": true,
          "internalType": "address",
          "name": "from",
          "type": "address"
        },
        {
          "indexed": true,
          "internalType": "address",
          "name": "to",
          "type": "address"
        },
        {
          "indexed": true,
          "internalType": "uint256",
          "name": "tokenId",
          "type": "uint256"
        }
      ],
      "name": "Transfer",
      "type": "event"
    },
    {
      "inputs": [],
      "name": "altarSupply",
      "outputs": [
        {
          "internalType": "uint256",
          "name": "",
          "type": "uint256"
        }
      ],
      "stateMutability": "view",
      "type": "function"
    },
    {
      "inputs": [
        {
          "internalType": "address",
          "name": "to",
          "type": "address"
        },
        {
          "internalType": "uint256",
          "name": "tokenId",
          "type": "uint256"
        }
      ],
      "name": "approve",
      "outputs": [],
      "stateMutability": "nonpayable",
      "type": "function"
    },
    {
      "inputs": [
        {
          "internalType": "address",
          "name": "owner",
          "type": "address"
        }
      ],
      "name": "balanceOf",
      "outputs": [
        {
          "internalType": "uint256",
          "name": "",
          "type": "uint256"
        }
      ],
      "stateMutability": "view",
      "type": "function"
    },
    {
      "inputs": [],
      "name": "baseURI",
      "outputs": [
        {
          "internalType": "string",
          "name": "",
          "type": "string"
        }
      ],
      "stateMutability": "view",
      "type": "function"
    },
    {
      "inputs": [],
      "name": "commonsMint",
      "outputs": [
        {
          "internalType": "uint256",
          "name": "",
          "type": "uint256"
        }
      ],
      "stateMutability": "view",
      "type": "function"
    },
    {
      "inputs": [
        {
          "internalType": "uint256",
          "name": "tokenId",
          "type": "uint256"
        }
      ],
      "name": "getApproved",
      "outputs": [
        {
          "internalType": "address",
          "name": "",
          "type": "address"
        }
      ],
      "stateMutability": "view",
      "type": "function"
    },
    {
      "inputs": [
        {
          "internalType": "address",
          "name": "owner",
          "type": "address"
        },
        {
          "internalType": "address",
          "name": "operator",
          "type": "address"
        }
      ],
      "name": "isApprovedForAll",
      "outputs": [
        {
          "internalType": "bool",
          "name": "",
          "type": "bool"
        }
      ],
      "stateMutability": "view",
      "type": "function"
    },
    {
      "inputs": [],
      "name": "maxTx",
      "outputs": [
        {
          "internalType": "uint256",
          "name": "",
          "type": "uint256"
        }
      ],
      "stateMutability": "view",
      "type": "function"
    },
    {
      "inputs": [
        {
          "internalType": "address",
          "name": "",
          "type": "address"
        }
      ],
      "name": "mintPerformedAsCommon",
      "outputs": [
        {
          "internalType": "uint256",
          "name": "",
          "type": "uint256"
        }
      ],
      "stateMutability": "view",
      "type": "function"
    },
    {
      "inputs": [
        {
          "internalType": "address",
          "name": "",
          "type": "address"
        }
      ],
      "name": "mintPerformedAsSorcerer",
      "outputs": [
        {
          "internalType": "uint256",
          "name": "",
          "type": "uint256"
        }
      ],
      "stateMutability": "view",
      "type": "function"
    },
    {
      "inputs": [],
      "name": "mintToCOVEN",
      "outputs": [
        {
          "internalType": "uint256",
          "name": "",
          "type": "uint256"
        }
      ],
      "stateMutability": "view",
      "type": "function"
    },
    {
      "inputs": [],
      "name": "name",
      "outputs": [
        {
          "internalType": "string",
          "name": "",
          "type": "string"
        }
      ],
      "stateMutability": "view",
      "type": "function"
    },
    {
      "inputs": [],
      "name": "owner",
      "outputs": [
        {
          "internalType": "address",
          "name": "",
          "type": "address"
        }
      ],
      "stateMutability": "view",
      "type": "function"
    },
    {
      "inputs": [
        {
          "internalType": "uint256",
          "name": "tokenId",
          "type": "uint256"
        }
      ],
      "name": "ownerOf",
      "outputs": [
        {
          "internalType": "address",
          "name": "",
          "type": "address"
        }
      ],
      "stateMutability": "view",
      "type": "function"
    },
    {
      "inputs": [],
      "name": "renounceOwnership",
      "outputs": [],
      "stateMutability": "nonpayable",
      "type": "function"
    },
    {
      "inputs": [
        {
          "internalType": "address",
          "name": "from",
          "type": "address"
        },
        {
          "internalType": "address",
          "name": "to",
          "type": "address"
        },
        {
          "internalType": "uint256",
          "name": "tokenId",
          "type": "uint256"
        }
      ],
      "name": "safeTransferFrom",
      "outputs": [],
      "stateMutability": "nonpayable",
      "type": "function"
    },
    {
      "inputs": [
        {
          "internalType": "address",
          "name": "from",
          "type": "address"
        },
        {
          "internalType": "address",
          "name": "to",
          "type": "address"
        },
        {
          "internalType": "uint256",
          "name": "tokenId",
          "type": "uint256"
        },
        {
          "internalType": "bytes",
          "name": "_data",
          "type": "bytes"
        }
      ],
      "name": "safeTransferFrom",
      "outputs": [],
      "stateMutability": "nonpayable",
      "type": "function"
    },
    {
      "inputs": [
        {
          "internalType": "address",
          "name": "operator",
          "type": "address"
        },
        {
          "internalType": "bool",
          "name": "approved",
          "type": "bool"
        }
      ],
      "name": "setApprovalForAll",
      "outputs": [],
      "stateMutability": "nonpayable",
      "type": "function"
    },
    {
      "inputs": [],
      "name": "sorcererMint",
      "outputs": [
        {
          "internalType": "uint256",
          "name": "",
          "type": "uint256"
        }
      ],
      "stateMutability": "view",
      "type": "function"
    },
    {
      "inputs": [
        {
          "internalType": "bytes4",
          "name": "interfaceId",
          "type": "bytes4"
        }
      ],
      "name": "supportsInterface",
      "outputs": [
        {
          "internalType": "bool",
          "name": "",
          "type": "bool"
        }
      ],
      "stateMutability": "view",
      "type": "function"
    },
    {
      "inputs": [],
      "name": "symbol",
      "outputs": [
        {
          "internalType": "string",
          "name": "",
          "type": "string"
        }
      ],
      "stateMutability": "view",
      "type": "function"
    },
    {
      "inputs": [
        {
          "internalType": "uint256",
          "name": "tokenId",
          "type": "uint256"
        }
      ],
      "name": "tokenURI",
      "outputs": [
        {
          "internalType": "string",
          "name": "",
          "type": "string"
        }
      ],
      "stateMutability": "view",
      "type": "function"
    },
    {
      "inputs": [],
      "name": "totalSupply",
      "outputs": [
        {
          "internalType": "uint256",
          "name": "",
          "type": "uint256"
        }
      ],
      "stateMutability": "view",
      "type": "function"
    },
    {
      "inputs": [
        {
          "internalType": "address",
          "name": "from",
          "type": "address"
        },
        {
          "internalType": "address",
          "name": "to",
          "type": "address"
        },
        {
          "internalType": "uint256",
          "name": "tokenId",
          "type": "uint256"
        }
      ],
      "name": "transferFrom",
      "outputs": [],
      "stateMutability": "nonpayable",
      "type": "function"
    },
    {
      "inputs": [
        {
          "internalType": "address",
          "name": "newOwner",
          "type": "address"
        }
      ],
      "name": "transferOwnership",
      "outputs": [],
      "stateMutability": "nonpayable",
      "type": "function"
    },
    {
      "inputs": [
        {
          "internalType": "bool",
          "name": "_status",
          "type": "bool"
        }
      ],
      "name": "setCommonsMintActiveOrNot",
      "outputs": [],
      "stateMutability": "nonpayable",
      "type": "function"
    },
    {
      "inputs": [],
      "name": "mintToCoven",
      "outputs": [],
      "stateMutability": "nonpayable",
      "type": "function"
    }
  ],
  "bytecode": "0x60a06040526115b360805260376009556001600a8190556002600b55600c553480156200002b57600080fd5b50604080518082018252600f81526e12195c99519bdc965bdd5c94dbdd5b608a1b60208083019182528351808501909452600a845269120d165bdd5c94dbdd5b60b21b90840152815191929162000085916002916200013d565b5080516200009b9060039060208401906200013d565b50506000805550620000ad33620000eb565b60408051808201909152600e8082526d1a5c199cce8bcbdd1bd09954d95d60921b6020909201918252620000e491600d916200013d565b5062000220565b600880546001600160a01b038381166001600160a01b0319831681179093556040519116919082907f8be0079c531659141344cd1fd0a4f28419497f9722a3daafe3b4186f6b6457e090600090a35050565b8280546200014b90620001e3565b90600052602060002090601f0160209004810192826200016f5760008555620001ba565b82601f106200018a57805160ff1916838001178555620001ba565b82800160010185558215620001ba579182015b82811115620001ba5782518255916020019190600101906200019d565b50620001c8929150620001cc565b5090565b5b80821115620001c85760008155600101620001cd565b600181811c90821680620001f857607f821691505b602082108114156200021a57634e487b7160e01b600052602260045260246000fd5b50919050565b6080516111a36200023c60003960006102a201526111a36000f3fe608060405234801561001057600080fd5b50600436106101a95760003560e01c80636c0360eb116100f957806395d89b4111610097578063c87b56dd11610071578063c87b56dd1461037d578063d496832414610390578063e985e9c514610399578063f2fde38b146103d557600080fd5b806395d89b411461034f578063a22cb46514610357578063b88d4fde1461036a57600080fd5b80637437681e116100d35780637437681e146103025780637c37da0b1461030b5780638ca150141461031e5780638da5cb5b1461033e57600080fd5b80636c0360eb146102df57806370a08231146102e7578063715018a6146102fa57600080fd5b80632397b6431161016657806342842e0e1161014057806342842e0e1461028a578063474c669d1461029d5780634c1974bd146102c45780636352211e146102cc57600080fd5b80632397b6431461026557806323b872dd1461026e5780632e6c63511461028157600080fd5b806301ffc9a7146101ae57806306fdde03146101d657806307d84ee5146101eb578063081812fc14610219578063095ea7b31461024457806318160ddd14610259575b600080fd5b6101c16101bc366004610fdf565b6103e8565b60405190151581526020015b60405180910390f35b6101de61043a565b6040516101cd91906110c7565b61020b6101f9366004610e17565b600f6020526000908152604090205481565b6040519081526020016101cd565b61022c610227366004611017565b6104cc565b6040516001600160a01b0390911681526020016101cd565b610257610252366004610f9c565b610510565b005b6001546000540361020b565b61020b60095481565b61025761027c366004610e63565b6105b0565b61020b600b5481565b610257610298366004610e63565b610741565b61020b7f000000000000000000000000000000000000000000000000000000000000000081565b610257610761565b61022c6102da366004611017565b610777565b6101de610782565b61020b6102f5366004610e17565b610810565b61025761085f565b61020b600a5481565b610257610319366004610fc5565b610871565b61020b61032c366004610e17565b60106020526000908152604090205481565b6008546001600160a01b031661022c565b6101de610895565b610257610365366004610f73565b6108a4565b610257610378366004610e9e565b61093a565b6101de61038b366004611017565b610984565b61020b600c5481565b6101c16103a7366004610e31565b6001600160a01b03918216600090815260076020908152604080832093909416825291909152205460ff1690565b6102576103e3366004610e17565b610a16565b60006301ffc9a760e01b6001600160e01b03198316148061041957506380ac58cd60e01b6001600160e01b03198316145b806104345750635b5e139f60e01b6001600160e01b03198316145b92915050565b60606002805461044990611106565b80601f016020809104026020016040519081016040528092919081815260200182805461047590611106565b80156104c25780601f10610497576101008083540402835291602001916104c2565b820191906000526020600020905b8154815290600101906020018083116104a557829003601f168201915b5050505050905090565b60006104d782610a94565b6104f4576040516333d1c03960e21b815260040160405180910390fd5b506000908152600660205260409020546001600160a01b031690565b600061051b82610777565b9050336001600160a01b038216146105545761053781336103a7565b610554576040516367d9dca160e11b815260040160405180910390fd5b60008281526006602052604080822080546001600160a01b0319166001600160a01b0387811691821790925591518593918516917f8c5be1e5ebec7d5bd14f71427d1e84f3dd0314c0f7b2291e5b200ac8c7c3b92591a4505050565b60006105bb82610abb565b9050836001600160a01b0316816001600160a01b0316146105ee5760405162a1148160e81b815260040160405180910390fd5b60008281526006602052604090208054338082146001600160a01b0388169091141761063b5761061e86336103a7565b61063b57604051632ce44b5f60e11b815260040160405180910390fd5b6001600160a01b03851661066257604051633a954ecd60e21b815260040160405180910390fd5b801561066d57600082555b6001600160a01b038681166000908152600560205260408082208054600019019055918716808252919020805460010190554260a01b17600160e11b17600085815260046020526040902055600160e11b83166106f857600184016000818152600460205260409020546106f65760005481146106f65760008181526004602052604090208490555b505b83856001600160a01b0316876001600160a01b03167fddf252ad1be2c89b69c2b068fc378daa952ba7f163c4a11628f55a4df523b3ef60405160405180910390a4505050505050565b61075c8383836040518060200160405280600081525061093a565b505050565b610769610b1c565b61077533600954610b76565b565b600061043482610abb565b600d805461078f90611106565b80601f01602080910402602001604051908101604052809291908181526020018280546107bb90611106565b80156108085780601f106107dd57610100808354040283529160200191610808565b820191906000526020600020905b8154815290600101906020018083116107eb57829003601f168201915b505050505081565b60006001600160a01b038216610839576040516323d3ad8160e21b815260040160405180910390fd5b506001600160a01b031660009081526005602052604090205467ffffffffffffffff1690565b610867610b1c565b6107756000610c53565b610879610b1c565b600e8054911515620100000262ff000019909216919091179055565b60606003805461044990611106565b6001600160a01b0382163314156108ce5760405163b06307db60e01b815260040160405180910390fd5b3360008181526007602090815260408083206001600160a01b03871680855290835292819020805460ff191686151590811790915590519081529192917f17307eab39ab6107e8899845ad3d59bd9653f200f220920489ca2b5937696c31910160405180910390a35050565b6109458484846105b0565b6001600160a01b0383163b1561097e5761096184848484610ca5565b61097e576040516368d2bf6b60e11b815260040160405180910390fd5b50505050565b606061098f82610a94565b6109ac57604051630a14c4b560e41b815260040160405180910390fd5b60006109c360408051602081019091526000815290565b90508051600014156109e45760405180602001604052806000815250610a0f565b806109ee84610d9c565b6040516020016109ff92919061105b565b6040516020818303038152906040525b9392505050565b610a1e610b1c565b6001600160a01b038116610a885760405162461bcd60e51b815260206004820152602660248201527f4f776e61626c653a206e6577206f776e657220697320746865207a65726f206160448201526564647265737360d01b60648201526084015b60405180910390fd5b610a9181610c53565b50565b6000805482108015610434575050600090815260046020526040902054600160e01b161590565b600081600054811015610b0357600081815260046020526040902054600160e01b8116610b01575b80610a0f575060001901600081815260046020526040902054610ae3565b505b604051636f96cda160e11b815260040160405180910390fd5b6008546001600160a01b031633146107755760405162461bcd60e51b815260206004820181905260248201527f4f776e61626c653a2063616c6c6572206973206e6f7420746865206f776e65726044820152606401610a7f565b6000546001600160a01b038316610b9f57604051622e076360e81b815260040160405180910390fd5b81610bbd5760405163b562e8dd60e01b815260040160405180910390fd5b6001600160a01b038316600081815260056020526040902080546801000000000000000185020190554260a01b6001841460e11b1717600082815260046020526040902055808281015b6040516001830192906001600160a01b038716906000907fddf252ad1be2c89b69c2b068fc378daa952ba7f163c4a11628f55a4df523b3ef908290a4808210610c075760005550505050565b600880546001600160a01b038381166001600160a01b0319831681179093556040519116919082907f8be0079c531659141344cd1fd0a4f28419497f9722a3daafe3b4186f6b6457e090600090a35050565b604051630a85bd0160e11b81526000906001600160a01b0385169063150b7a0290610cda90339089908890889060040161108a565b602060405180830381600087803b158015610cf457600080fd5b505af1925050508015610d24575060408051601f3d908101601f19168201909252610d2191810190610ffb565b60015b610d7f573d808015610d52576040519150601f19603f3d011682016040523d82523d6000602084013e610d57565b606091505b508051610d77576040516368d2bf6b60e11b815260040160405180910390fd5b805181602001fd5b6001600160e01b031916630a85bd0160e11b149050949350505050565b604080516080810191829052607f0190826030600a8206018353600a90045b8015610dd957600183039250600a81066030018353600a9004610dbb565b50819003601f19909101908152919050565b80356001600160a01b0381168114610e0257600080fd5b919050565b80358015158114610e0257600080fd5b600060208284031215610e28578081fd5b610a0f82610deb565b60008060408385031215610e43578081fd5b610e4c83610deb565b9150610e5a60208401610deb565b90509250929050565b600080600060608486031215610e77578081fd5b610e8084610deb565b9250610e8e60208501610deb565b9150604084013590509250925092565b60008060008060808587031215610eb3578081fd5b610ebc85610deb565b9350610eca60208601610deb565b925060408501359150606085013567ffffffffffffffff80821115610eed578283fd5b818701915087601f830112610f00578283fd5b813581811115610f1257610f12611141565b604051601f8201601f19908116603f01168101908382118183101715610f3a57610f3a611141565b816040528281528a6020848701011115610f52578586fd5b82602086016020830137918201602001949094529598949750929550505050565b60008060408385031215610f85578182fd5b610f8e83610deb565b9150610e5a60208401610e07565b60008060408385031215610fae578182fd5b610fb783610deb565b946020939093013593505050565b600060208284031215610fd6578081fd5b610a0f82610e07565b600060208284031215610ff0578081fd5b8135610a0f81611157565b60006020828403121561100c578081fd5b8151610a0f81611157565b600060208284031215611028578081fd5b5035919050565b600081518084526110478160208601602086016110da565b601f01601f19169290920160200192915050565b6000835161106d8184602088016110da565b8351908301906110818183602088016110da565b01949350505050565b6001600160a01b03858116825284166020820152604081018390526080606082018190526000906110bd9083018461102f565b9695505050505050565b602081526000610a0f602083018461102f565b60005b838110156110f55781810151838201526020016110dd565b8381111561097e5750506000910152565b600181811c9082168061111a57607f821691505b6020821081141561113b57634e487b7160e01b600052602260045260246000fd5b50919050565b634e487b7160e01b600052604160045260246000fd5b6001600160e01b031981168114610a9157600080fdfea2646970667358221220a1a66f6879df1009210e6fdbba95a277a347cc4bf1663138130d6959ac3859a364736f6c63430008040033",
  "immutableReferences": {
    "11": [
      {
        "length": 32,
        "start": 674
      }
    ]
  },
  "source": "// SPDX-License-Identifier: MIT\r\n\r\npragma solidity ^0.8.4;\r\n// import \"../node_modules/@openzeppelin/contracts/token/ERC721/ERC721.sol\";\r\nimport \"../node_modules/erc721a/contracts/ERC721A.sol\";\r\nimport \"../node_modules/@openzeppelin/contracts/access/Ownable.sol\";\r\nimport \"../node_modules/@openzeppelin/contracts/utils/cryptography/MerkleProof.sol\";\r\n\r\n\r\n\r\n\r\ncontract HereForYourSoul is ERC721A,Ownable{\r\n\r\n    uint256 public immutable altarSupply = 5555;\r\n    uint256 public mintToCOVEN = 55;\r\n    uint256 public maxTx = 1;\r\n    uint256 public sorcererMint = 2;\r\n    uint256 public commonsMint =1;\r\n\r\n\r\n    string public baseURI;\r\n    bool revealed ;\r\n    bool sorcererMintIsAtive;\r\n    bool commonsMintIsActive;\r\n\r\n    mapping(address =>uint256) public mintPerformedAsSorcerer;\r\n    mapping(address => uint256) public mintPerformedAsCommon;\r\n\r\n    constructor()ERC721A(\"HereForYourSoul\",\"H4YourSoul\"){\r\n        baseURI = \"ipfs://toBeSet\";\r\n       \r\n    }\r\n\r\n    function setCommonsMintActiveOrNot(bool _status) public onlyOwner{\r\n        commonsMintIsActive = _status;\r\n    }\r\n    function mintToCoven()public onlyOwner{\r\n        _mint(msg.sender,mintToCOVEN);\r\n\r\n    }\r\n\r\n\r\n\r\n}",
  "sourcePath": "C:\\Users\\Daniel Awodeji\\Desktop\\hereForYourSoul\\truffle\\contracts\\hereForYourSoul.sol",
  "compiler": {
    "name": "solc",
    "version": "0.8.4+commit.c7e474f2.Emscripten.clang"
  },
  "schemaVersion": "3.4.4",
  "updatedAt": "2022-07-07T23:27:31.410Z",
  "devdoc": {
    "kind": "dev",
    "methods": {
      "approve(address,uint256)": {
        "details": "See {IERC721-approve}."
      },
      "balanceOf(address)": {
        "details": "See {IERC721-balanceOf}."
      },
      "getApproved(uint256)": {
        "details": "See {IERC721-getApproved}."
      },
      "isApprovedForAll(address,address)": {
        "details": "See {IERC721-isApprovedForAll}."
      },
      "name()": {
        "details": "See {IERC721Metadata-name}."
      },
      "owner()": {
        "details": "Returns the address of the current owner."
      },
      "ownerOf(uint256)": {
        "details": "See {IERC721-ownerOf}."
      },
      "renounceOwnership()": {
        "details": "Leaves the contract without owner. It will not be possible to call `onlyOwner` functions anymore. Can only be called by the current owner. NOTE: Renouncing ownership will leave the contract without an owner, thereby removing any functionality that is only available to the owner."
      },
      "safeTransferFrom(address,address,uint256)": {
        "details": "See {IERC721-safeTransferFrom}."
      },
      "safeTransferFrom(address,address,uint256,bytes)": {
        "details": "See {IERC721-safeTransferFrom}."
      },
      "setApprovalForAll(address,bool)": {
        "details": "See {IERC721-setApprovalForAll}."
      },
      "supportsInterface(bytes4)": {
        "details": "See {IERC165-supportsInterface}."
      },
      "symbol()": {
        "details": "See {IERC721Metadata-symbol}."
      },
      "tokenURI(uint256)": {
        "details": "See {IERC721Metadata-tokenURI}."
      },
      "totalSupply()": {
        "details": "Returns the total number of tokens in existence. Burned tokens will reduce the count. To get the total number of tokens minted, please see `_totalMinted`."
      },
      "transferFrom(address,address,uint256)": {
        "details": "Transfers `tokenId` from `from` to `to`. Requirements: - `to` cannot be the zero address. - `tokenId` token must be owned by `from`. Emits a {Transfer} event."
      },
      "transferOwnership(address)": {
        "details": "Transfers ownership of the contract to a new account (`newOwner`). Can only be called by the current owner."
      }
    },
    "version": 1
  },
  "userdoc": {
    "errors": {
      "ApprovalCallerNotOwnerNorApproved()": [
        {
          "notice": "The caller must own the token or be an approved operator."
        }
      ],
      "ApprovalQueryForNonexistentToken()": [
        {
          "notice": "The token does not exist."
        }
      ],
      "ApproveToCaller()": [
        {
          "notice": "The caller cannot approve to their own address."
        }
      ],
      "BalanceQueryForZeroAddress()": [
        {
          "notice": "Cannot query the balance for the zero address."
        }
      ],
      "MintERC2309QuantityExceedsLimit()": [
        {
          "notice": "The `quantity` minted with ERC2309 exceeds the safety limit."
        }
      ],
      "MintToZeroAddress()": [
        {
          "notice": "Cannot mint to the zero address."
        }
      ],
      "MintZeroQuantity()": [
        {
          "notice": "The quantity of tokens minted must be more than zero."
        }
      ],
      "OwnerQueryForNonexistentToken()": [
        {
          "notice": "The token does not exist."
        }
      ],
      "OwnershipNotInitializedForExtraData()": [
        {
          "notice": "The `extraData` cannot be set on an unintialized ownership slot."
        }
      ],
      "TransferCallerNotOwnerNorApproved()": [
        {
          "notice": "The caller must own the token or be an approved operator."
        }
      ],
      "TransferFromIncorrectOwner()": [
        {
          "notice": "The token must be owned by `from`."
        }
      ],
      "TransferToNonERC721ReceiverImplementer()": [
        {
          "notice": "Cannot safely transfer to a contract that does not implement the ERC721Receiver interface."
        }
      ],
      "TransferToZeroAddress()": [
        {
          "notice": "Cannot transfer to the zero address."
        }
      ],
      "URIQueryForNonexistentToken()": [
        {
          "notice": "The token does not exist."
        }
      ]
    },
    "kind": "user",
    "methods": {},
    "version": 1
  }
}